:10800000006A0020FDAB0000FBAB0000FBAB0000F2
:108010000000000000000000000000000000000060
:10802000000000000000000000000000FBAB0000AA
:108030000000000000000000FBAB0000FBAB0000F4
:10804000FBAB0000FBAB0000B58B000045860000D9
:10805000FBAB0000FBAB0000FBAB0000FBAB000088
:10806000D5940000E5940000F5940000059500000B
:108070001595000025950000FBAB0000FBAB000050
:10808000FBAB000029A8000039A800000000000098
:108090000000000049A80000FBAB0000FBAB0000A3
:1080A00000000000FBAB000000000000000000002A
:1080B0000000000010B5064C2378002B07D1054BBB
:1080C000002B02D0044800E000BF0123237010BD44
:1080D000F401002000000000F4860100084B10B5F8
:1080E000002B03D00749084800E000BF0748036899
:1080F000002B00D110BD064B002BFBD09847F9E7B1
:1081000000000000F8010020F4860100F486010060
:108110000000000070B5094B00209847FA21084C78
:1081200089000500A047074B074918602800A047B1
:108130000522064B1860064B1A6070BDA9A5000009
:10814000212F01000000002040420F000400002009
:1081500010E000E030B580240021074B64021A686B
:10816000064B013800D230BD002AFAD05A6099601F
:108170001D682542FCD0F4E70400002010E000E078
:1081800030B580240021074B64021A68064B013881
:1081900000D230BD002AFAD05A6099601D6825428D
:1081A000FCD0F4E70000002010E000E0094B196863
:1081B00000290BD1EFF31080074A002805D172B6D1
:1081C000BFF35F8F05490870012111701A680132F1
:1081D0001A607047100200201402002008000020DE
:1081E000084B1A68013A1A601B68002B09D1064B2C
:1081F0001B78002B05D00122044B1A70BFF35F8F50
:1082000062B670471002002014020020080000200F
:10821000F7B50023012601AC224D21000E20667027
:10822000A3702670A84780231F4FDB01BB6121008C
:1082300012202670A8478023DB02BB6100232100A7
:10824000072023706670A847002321005220A370E6
:1082500066702670A84721003E20A84721003F20D5
:10826000A84721002F20A84721001420A8478022DA
:108270000E4BD2029A618022683BD2051A6080269A
:108280008022360212061A601E6080235B03BB61E7
:108290000023210053202370A847054BDA691643B9
:1082A000DE61F7BD958B00000028004000290040EA
:1082B0000004004030B599B002AD040058220A49CC
:1082C00028000A4B9847132C0BD80023A40001A9BF
:1082D00060594B70CB708B7001330B70C0B2044B84
:1082E000984719B030BDC046D07101006F5C0100E5
:1082F00049A7000006220271C0225201C28002007A
:1083000000232A32037043708370C37003830362B7
:10831000C361037243728372C37203731370421D8D
:1083200043738373C37303610375D377C384038576
:10833000437570470823F7B514009F4A0160060093
:10834000106A034313620B780520DB0700D5D0E0E9
:108350003268138C002BFCD10B781C209B0700D5B6
:10836000C7E063783371002B04D1944A0433D16998
:108370000B43D361237801A90B701E20904B356805
:1083800098471E208F4B984720798F4B9847E0885D
:108390008D4B984700270123BB4022691A4202D027
:1083A0003800894B98470137142FF4D1637BA27BA7
:1083B0009B01D2011343DBB22B70237D6278DB017A
:1083C0001343DBB2AB70E378302B00D19DE009D8CA
:1083D000102B00D196E0202B00D196E0002B0BD182
:1083E0001A0090E0322B09D000D290E0332B00D15C
:1083F00084E0342B00D17DE017207AE004221023A2
:1084000002217020090101400A432A7331680A8C55
:10841000002AFCD1617D3F29EED8E27BD2010A43DC
:10842000D2B26A7331680A8C002AFCD1A278611D2D
:108430006A70CA7F207BD20080001043E27A024338
:10844000A07A400002431A436A813268108C0028E7
:10845000FCD1228B9446002A06D0102B00D19BE041
:1084600057D8002B00D188E062466B8913436B819B
:108470003268138C002BFCD1A38BEB8133681A8CF0
:10848000002AFCD1238C2B8233681A8C002AFCD161
:108490002379E28813432B8133681A8C002AFCD19C
:1084A00023002A331B78EB7007232B71CB7F002B23
:1084B00014D0E38C45498B429ED86B823268138C72
:1084C000002BFCD18023228D1B01D3189BB28B4241
:1084D00092D8AA823268138C002BFCD1E0210020B4
:1084E0003B4BC9001B681A029B060A405B0F1343F3
:1084F000AB85FEBD617A227A102382E70622102323
:1085000001217EE7082200217BE70022FBE702220F
:10851000F5E7202B17D0302BA6D1E37AE069002BAA
:1085200009D003008033FF2B00D965E7236A80332D
:10853000FF2B00D960E7FF2800DD5DE7236AFF2BF2
:1085400000DD59E790E7E07AE769224B00280CD07C
:10855000802080003818984200D94DE78022206A98
:1085600092001018984200D946E79F4200DD43E789
:10857000226A9A4200DD3FE776E7E07AE769134B2B
:108580000028F2D080221201B818984200D933E7AF
:108590008020226A0001E4E7E07AE7690E4B0028B8
:1085A000E3D080221202B818984200D924E7802034
:1085B000226A0002D5E7C0460004004000140040D3
:1085C00071A6000011A60000B5820000FF0F000098
:1085D00020608000FF030000FFFF000010B517239C
:1085E000002A06D1064B8900CC58002C03D1C85074
:1085F0002300180010BD13008442FAD01D23F8E7B1
:10860000142200201723002906D11F2806D8163B64
:108610008340034A13610B00180070470961FFDEB5
:10862000002400401723002906D11F2806D8163B36
:108630008340034AD3600B0018007047C960FFDE17
:1086400000240040002370B501250B4C23702378D3
:108650000F2B00D970BD29009940084A5069084283
:1086600006D05161064A9B009B58002B00D09847CA
:10867000237801332370EAE7102200200024004011
:10868000142200200123044A18005168890700D4ED
:10869000506818407047C04600240040022310B5BF
:1086A000044A11780B431370034B98470028FBD101
:1086B00010BDC0460024004085860000022110B590
:1086C000044A13788B431370034B98470028FBD15F
:1086D00010BDC0460024004085860000802310B5F0
:1086E0000E4A9B0051690E4C0B43536101222178C5
:1086F0000A4322700B4B98470028FBD110232278A5
:10870000134302002370084B1A5004304028FBD159
:108710000822064B1A60064B984710BD0004004023
:1087200000240040858600001422002000E100E0C3
:108730009D860000012200230272921803604360AC
:108740008372C27243727047F7B50C0000261B4B50
:1087500005009847237901A94E70CE700B70237ADB
:1087600020788B70164B984731001F2D00D8154983
:108770000722A37A2A409200E67A002B01D0082330
:108780001E430F27964097403200EB089B00CB1802
:10879000D869B8430243DA61627A0123002A06D01D
:1087A000AB408A6913438B61074B9847F7BDAB40D9
:1087B000DB4388699BB20340F5E7C046BD860000F5
:1087C00049A70000002400409D860000024B187D50
:1087D000012318407047C04600400041042370B593
:1087E0001C4A1D4D916904000B4393612023FF3304
:1087F0002B831A4B984703000520002B28D0C0225A
:108800001E21237892001B021340A27852000A40D6
:10881000802113436278C902D2011343E2789204A3
:108820000A40C02113432279890212040A40082118
:1088300013436B60AB680A4A5B035B0F994011807E
:10884000AB68538063781371288BC005C00F00019B
:1088500070BDC0460004004000400041CD870000CC
:1088600016020020F7B5344A0D0053881188040021
:108870004B43AB420BD28022304B9201EB18934218
:1088800005D92F4B2F4AEB181820934212D82E4FA0
:108890007B683E0001938023019ADB0213437B60D7
:1088A0002023FF333B83294B9847002803D1019BAA
:1088B00005307B60FEBD1A2C05D016D8042C02D0E2
:1088C0000DD8022C0DD1AD086D00F5611A2C30D1F8
:1088D00080237268DB021343736073680EE0062C1A
:1088E00020D9019B17207360E4E7412C04D8402C69
:1088F000E9D21C2CF5D1E6E7452CF2D8A5231B02C2
:1089000023433380114B98470028FBD0FD231A3CAA
:108910001C4203D173680E4A13407360019B002010
:108920007360C7E73B8BDB05CDD5019B10207B60D7
:10893000C0E71C2CCCD0E1E71602002000C07FFF6E
:108940000000C0FFFF1F000000400041CD87000075
:10895000FFFFFBFFF7B5294F019115003B887A888F
:1089600004005A43824233D225492648611818220E
:1089700081422BD8173A591E009218220C4225D159
:10898000013AAB4222D3204B9847052200281DD044
:108990001E4E1F4B33801C4B98470028FBD02023D2
:1089A000FF333383002362085200681EAB4211D3A9
:1089B00000223B79934209D13F2D07D80099154BEE
:1089C000914217D021001C20984702001000FEBDE4
:1089D0000022D0E70199C95C834205DB89B20233EA
:1089E00011809BB20232E1E7019EF61876783602DA
:1089F0003143F4E721000420E6E7C04616020020D8
:108A00000000C0FFFF1F0000CD87000000400041B4
:108A100044A5FFFF65880000F8B51A4B16001A88B8
:108A20005B88050053430F00834205D2164917485F
:108A300069181823814216D8541E2C401823002C84
:108A400011D1013BB2420ED3114B984705230028A8
:108A500009D020220F4BFF326D081A836D00711E62
:108A6000A64202D800231800F8BD2B889BB23B55C4
:108A70008C4202DA3A191B0A53700234A4B202354E
:108A8000EEE7C046160200200000C0FFFF1F0000F6
:108A9000CD87000000400041F8B51F4A0700138849
:108AA00052885A43824207D21C4A1D49BA181820DC
:108AB00001258A4201D9F8BD00259B00013B182001
:108AC0001F42F8D1174EB04703000520002BF2D00B
:108AD0002023154CBF08FF337F002383E761002D5F
:108AE00017D080236268DB021343636063680F4B17
:108AF0002380B0470028FCD0002D03D063680C4AC7
:108B0000134063601C23208B1840431E9841800053
:108B1000D1E7084BECE7C046160200200000C0FF7A
:108B2000FF1F0000CD870000004000411AA5FFFF95
:108B3000FFFFFBFF02A5FFFF202210B5072408213D
:108B4000124BFF321A839A68130C234099404280DB
:108B5000120D82810E4A017013881B092340A34223
:108B600009D100234360072312881A409A4207D193
:108B70000023836010BD0621C91A04238B40F1E74E
:108B80009B1A04229A408260F4E7C04600400041EC
:108B90000040800007B5802201AB1A700A785A7035
:108BA0004A789A708A781900DA70014B984707BDA5
:108BB00049A70000F7B5214B1C68E38EA28E2668FA
:108BC0001A400092B38975891D402BB2002B07DA39
:108BD00013005B0501D5236B9847194BB381F7BD93
:108BE000EBB2002B15D000270123BB4001932B4291
:108BF00008D0009B01223B41134203D0BB1C9B00C9
:108C00001B5998476B469B880137B381082FEBD1DE
:108C1000E5E780277F003D4206D0009B3B4201D024
:108C2000A36A9847B781DAE78027BF003D42D6D0D4
:108C3000009B3B42F6D0E36AF3E7C0465422002093
:108C40000080FFFF07230168CA691A42FCD1704700
:108C5000F0B506008DB031600800974B17000D008D
:108C60009847964A052800D115E101238340040066
:108C7000D16912340B43D3613B7B0AAAE4B213706F
:108C8000110020008E4B984720008E4B98478E4B4A
:108C9000387B002198472B681C209B0700D5F8E003
:108CA00001232C6817381C4000D0F2E013332B60EE
:108CB00033680BAD019318007F4B984780230290D7
:108CC000F8692B707F3B6C70EC70AB703C6A0028CD
:108CD00003D101007D4B0198984702232870000CB6
:108CE0006B70C0B229007A4B9847002C04D1012147
:108CF0000198764B9847040002232C70240C6B706B
:108D0000E0B2734B29009847BB8AF380FB8A33811A
:108D10003A7E8023002A06D16E4B02329B781340A4
:108D20005E1EB341DB01BA683E6916431E437B1DDC
:108D3000DB7F002B02D08023DB051E43BB6A1E4372
:108D40003B002C331B78002B03D180239B049A42D9
:108D500002D180231B051E433B002D331B78002BC3
:108D600002D080231B041E433B002E331B78002BB4
:108D700002D08023DB031E43019B019A1B681E4324
:108D8000019B1E6080235B005360029BFA26123316
:108D9000D8B2514B98473B68B6005E437B6806905B
:108DA00007934E4B98474D4B0290039170009847A4
:108DB00004900591494B388E9847494C0890099189
:108DC00002980399474A484BA04702000B000898B5
:108DD0000999A0470022454C454BA0473F4B040052
:108DE00030000D00984702000B00200029003C4C89
:108DF000A047404D02000B0002980399A847049A2F
:108E0000059B3A4CA04700223B4BA847049A059B80
:108E10003A4CA0473A4B984780230490BA689B0489
:108E20009A4245D1FA23079C9B005C43029A039B1C
:108E30002E4E10001900B047284B029003912000DD
:108E4000984700222F4B264EB0472C4E02000B00B5
:108E500002980399B0470022274BA847284B984710
:108E6000294B061E1DD02100069898470238831B07
:108E7000049A4020FF2A0CD8FF2B0AD8FF201500A7
:108E800000041B0403400020360635431D43019BAC
:108E9000DD600DB0F0BD0223116A18240B4313628C
:108EA000EAE66100069A481E80189847431EDFE7ED
:108EB00000263300DCE7C0463D940000000400407B
:108EC00071A6000011A60000059300004993000060
:108ED00049A700000020004195A60000A559010007
:108EE0008D4D010095D626E80B2E113E054101005F
:108EF000000024408D5201000000F03F2547010092
:108F0000B958010000000840212F01000222036827
:108F1000197E114206D01A765B8B412013420AD18A
:108F2000002008E05A8B5207FAD5C0221820596851
:108F300092020A435A60704770B50022012602244B
:108F400001680B7E334002D10D7E254201D0002006
:108F500005E00132038992B29342F2D8122070BD2B
:108F6000802310B50468DB026268134363606162AA
:108F7000024B98470123237610BDC046398F00006D
:108F8000F0B5046885B0236801901B01DB0F4D88A4
:108F900003934B7A0E00002B02D0897A474B9847F7
:108FA0006368474F3B406360727A3388317A92033B
:108FB0005B0013430122002919D0802212021343BF
:108FC000636201983F4B984763683B4063600028A9
:108FD00063D101983C4B984700285ED178233288B2
:108FE000717A120A1343012289035B000A43134377
:108FF00063620198334B9847039B0200002B17D004
:109000007388012B14D180236168DB020B436360FA
:10901000002A42D101982C4B984700283DD1013DB0
:10902000AFB20500294B9F4206D10295002520E0F2
:1090300063681F406760EBE72022638B13423AD0DE
:10904000019BDB7A002B04D0039B002B27D1002F40
:1090500027D001981E4B98476B1C9BB202932300AC
:1090600028331B78726801985355164B9847051E94
:109070001DD0019B164F9B7A002B06D00198B84754
:10908000C02362689B02134363600198B8472800BD
:1090900028342278736802995A5405B0F0BD012F24
:1090A000D7D180226368D202134363600295013FE7
:1090B000BFB2029DB6E74120EFE7C046618F0000D6
:1090C000FFFFFBFF398F00000D8F0000FFFF000046
:1090D000458C0000F7B50F004B88050001932A4B23
:1090E000046898477B7A002B03D0B97A2800274B75
:1090F00098476368264A134063607A7A3B88397AD6
:109100005B0092031343002902D080221202134312
:10911000636228001F4B9847061E15D128001E4B7E
:109120009847061E10D10090009B019A93420DD1E2
:109130000026AB7A002B07D0134B28009847C0239A
:1091400062689B02134363603000FEBD2022638B84
:10915000134216D028000C4B98477B68009A2800D1
:109160009A5C230028331A700A4B9847061EE0D1F8
:10917000009A638B0132009204221342D4D01E263F
:10918000D7E74126E0E7C046458C0000618F00002C
:10919000FFFFFBFF398F00000D8F0000012310B58A
:1091A0008372C372014B984710BDC046818F000087
:1091B000012310B58372C372014B984710BDC0469E
:1091C000D5900000002310B583720133C372014BA8
:1091D000984710BDD5900000F0B5002489B00092EA
:1091E00001933F2300260027250006900791039353
:1091F000039A134B012000219847B6197F41069B23
:10920000079A03400A4004960597134303D00123AD
:1092100033431E00059F019BBB4209D802D1009B2E
:10922000B34205D8009A019BB61A9F4104430D43EF
:10923000039B5A1E0392DBD22000290009B0F0BD27
:109240000D32010010B54908040000234020A1425E
:1092500001D210BD0300581C091B80B28C42F9D901
:109260004020FF2BF5D813800020F2E7F0B585B041
:109270001E000AAB0D00197803004B4303924027F0
:10928000AB4217D8002E18D10200330008001B4C47
:109290003100A0472A0001003300194C3000A047DC
:1092A00000220123121A8B41140C180404430027D6
:1092B000039B1C80380005B0F0BD0024012EF6D1C0
:1092C0000A00230021000D4EB047009001910B00D1
:1092D0000200210028000A4CA047802306009B01C1
:1092E0009842E7D8009A019B690FE800A047F40074
:1092F000041BE4B264033443D9E7C0469932010049
:10930000D991000037B50D4C05002378002B01D012
:1093100000290CD001A91120094B0D70984711208C
:10932000084B984701230020657023703EBD637889
:109330000800AB42FAD01D20F8E7C0461C0200200E
:1093400071A6000011A60000294B00B598422AD052
:1093500008D88423DB05984215D0264B98421AD0B2
:10936000002017E0244B98422DD0244B984232D055
:10937000234B9842F4D1002003290BD8080009F0B0
:10938000C5FD341C1E20022903D00329E8D11D4845
:1093900000E01D4800BD022903D00329E0D11B488D
:1093A000F8E71B48F6E700200329F3D8080009F086
:1093B000A3FD1A02D7D71748ECE71748EAE7174882
:1093C000E8E71748E6E7022903D00329C8D1154882
:1093D000E0E71548DEE7022903D00329C0D113488E
:1093E000D8E71348D6E71348D4E71348D2E7C04676
:1093F0000008004200040042001000420004004344
:10940000000C0042030007000300060003001F00D9
:1094100003001E00030009000300110003001200F6
:109420000300130003000F0003000E0003001900E7
:1094300003001800030008000300100070B586B098
:109440006946094B6A4670CB70C170CB70C100236E
:1094500099005158814202D1D8B206B070BD013393
:10946000062BF5D10020F8E72872010070470000B4
:10947000F0B5094C094A2378002B09D11E00084F8A
:10948000084DD750EE500433182BFAD1173B2370F8
:1094900080001150F0BDC0461E02002020020020B6
:1094A0006D9400005822002007B508236A46137007
:1094B00001335370013393700133D370013313714F
:1094C00001335371024B98476B4618560EBDC04688
:1094D0003D94000010B5024B00201B68984710BD5A
:1094E0002002002010B5024B01205B68984710BD98
:1094F0002002002010B5024B02209B68984710BD47
:109500002002002010B5024B0320DB68984710BDF5
:109510002002002010B5024B04201B69984710BDA3
:109520002002002010B5024B05205B69984710BD52
:1095300020020020036805201A7ED20703D50020F0
:10954000C905C90D99627047002210B54309C409C5
:10955000944202D1DA01064BD2181F2318401E3B59
:109560008340002901D0936110BD5361FCE7C046E0
:109570000028004030B50424036810221D7E2542D7
:109580000CD05D8B0022254201D05C831E32807995
:109590009B6A012804D1DB05DB0D0B80100030BD78
:1095A000DBB2FAE70300F0B5022719600B688BB055
:1095B00001900D0014003B4200D187E00026936A21
:1095C000013F0693D36A0793136B0893536B099378
:1095D000B30006AA9858F1B2002802D128008F4B98
:1095E0009847431C2CD083B2000CC0B20393C2092D
:1095F0004309002A00D00BE11F21894ADB019B1897
:1096000001405A18029340321278944663468022F1
:109610003B4208D0029B49085B1830331A78D2B21B
:1096200038420AD01209039B934209D00023019AC1
:1096300013601C3318000BB0F0BD0F231A40F2E783
:109640000136042EC4D1774B1120984723780100AE
:109650000022012B0DD105AE734B3200A069984753
:1096600017230028E6D12A7B317805339142E1D1D6
:109670000C22A16863680B43E1680B43617C1343D0
:10968000227C002901D080210B43A17C002902D03B
:10969000802189020A43E17C002902D080218900CF
:1096A0000A43217D002902D0802189010A43022139
:1096B00028680B438342B9D16B689342B6D12378B3
:1096C000019A5371237C93710023B3E701260A6842
:1096D00005233242AED1554B08009847544B05281C
:1096E00000D190E086400200D96912320E43DE615B
:1096F000671DFB7FD6B204A90B7030004D4B984715
:1097000030004D4B98474D4BF87F00219847237808
:10971000012B03D12A680B3313432B60019B05AD4A
:109720001E6880232B70002301226B70EB7023785E
:10973000AA70002B00D1AB700027A36A0693E36ADE
:109740000793236B0893636B0993BB0006AA985891
:10975000F9B2002802D13000304B9847431C05D0A5
:109760002870000CC0B22900354B98470137042FF0
:10977000EBD12378019A5371237C9371A37CD3712D
:10978000237D137204AB9D1C00232B802378012BB7
:1097900011D11068254B98471230224BC0B2984720
:1097A000214B01002A00A06998471723002800D008
:1097B00040E72B783373A3686268617C1A43E368DF
:1097C0001A43237C002903D11E498978890701D5D2
:1097D00080210A43A17C002902D0802189020B4309
:1097E000E17C002902D0802189000B43217D0029E2
:1097F00002D0802189010B4331680A4332607268CC
:109800001343736060E71A6A17431F6218226FE7F9
:109810001F23184040300378FFDEC0464993000004
:109820000028004095A60000459200003D940000ED
:109830000004004071A6000011A60000059300007E
:1098400049A7000000200041F0B585B00500009157
:10985000160001931720002A30D0EB790530002B39
:109860002CD000246B79012B08D12A680121137EAA
:109870000B42FBD001992800124B98472A6804211B
:10988000137E0B42FBD002AB9F1D002339003B80AF
:1098900028000D4B9847002810D100993A88631C86
:1098A0000A55A9799BB201290AD100990234120AFA
:1098B000A4B2CA54013EB6B2002ED3D105B0F0BD59
:1098C0001C00F7E7359500007595000073B50E0094
:1098D0004179050014001520012903D12A7A002AB4
:1098E00001D0002076BD3078144B002C22D0747843
:1098F000002C1CD02C68247E0C4202D198470520F5
:10990000F0E7110098470E4BB17828009847EB79A3
:10991000002BE6D1296804330A7E1A42FCD06B463C
:109920000024991D2800074B0C809847D9E7210097
:109930009847D6E798472000D4E7C04649950000ED
:109940003595000075950000F7B504000F0015006F
:1099500017200026002A20D1FEBD01211A7E0A42CE
:10996000FBD0A27973189BB2B95D012A17D01E00F3
:1099700089B2134B20009847E379002B09D0226865
:109980000421137E0B42FBD06B462000991D0D4B2A
:109990009847013DADB2002D07D02368DDE7FB5CA1
:1099A00002361B02B6B21943E3E763792800012BA4
:1099B000D2D1216801330A7E1A42FCD00020CBE7C5
:1099C0003595000075950000F0B5070093B0A64BE3
:1099D000396008001400049198470123020005280B
:1099E00055D005000100123504980068844666468B
:1099F00005201E4200D014E10498006884466646A3
:109A00001C20B60700D50CE198488B40052A41D1AF
:109A1000026A1343036223002D331E001B780CA936
:109A2000EDB20B702800924B98472800914B984755
:109A30000021914B30789847E37A7B71631DDB7F7F
:109A4000BB71A31DDB7FFB71E37E3B72237F7B72C7
:109A50003B6803931800844B98471823052801D0CE
:109A60000300123300250EAA1580228A08260292CE
:109A700080220299D20191421BD00FD88022102659
:109A80009201914200D1CFE01026002511E0182567
:109A90001900A9E7C2691343C361BCE7C022029958
:109AA000D201914200D1BEE08022032612029142EF
:109AB000EAD122680692E268079262690892227EE1
:109AC0000992E21DD27F0A926268059222000599EE
:109AD0000832002900D1A9E0802105984905884273
:109AE0000ED1D27F002A0BD1D8B2644B256A984799
:109AF0000EAA0100624B28009847002800D090E091
:109B0000637E002B02D0A37E039A93730EAE33883C
:109B1000039A9381079A069B1343089A1343059A65
:109B20001343029A1343099A120213430A9A5207E3
:109B3000134322000832D27F002A01D1043213439A
:109B4000627E217F920249020A43617FE07A090224
:109B50000A43611DC97F49040A43A11DC97F090445
:109B60000A43A17A01430A432189FF2900D173E006
:109B70008020400403430A4321002C310978002946
:109B800003D140498978890701D580210B43386882
:109B9000C1690029FCD103994A603968CA69002A61
:109BA000FCD103990DAD0B6080232B70236B6A7081
:109BB0000E93636BEA707360A36BAA70B360E36B80
:109BC0001400F360A300F058E1B2002802D1049819
:109BD0002D4B9847431C05D02870000CC0B22900BB
:109BE0002A4B98470134042CECD13B00002430333D
:109BF000FC85FC603C617C61BC61FC613C62BC62D8
:109C00007C62BC859C701C705C70DC703868164B84
:109C1000984705001E4B1F49984720001E4BAD007A
:109C2000EF5013B0F0BD0826012542E7D27F002A8D
:109C300007D02B000096A16A206A0EAA174DA847EC
:109C40005BE7226AD8B20D4B0B9298470096010051
:109C50002B000EAA0B98F1E7E17E002900D18BE7DB
:109C60008021C9040B4387E73D94000000040040B5
:109C700071A6000011A600000593000095A6000043
:109C800045920000002000414993000049A70000D0
:109C900071940000A59D0000582200206D920000E4
:109CA000C2791C23002A0AD0C28D173B002A06D194
:109CB000036802321985197E1142FCD00023180076
:109CC000704710B582791C23002A11D0828D173B72
:109CD000002A0DD102680420147E044208D0538B60
:109CE000DBB29C061DD00224234203D01A235483E6
:109CF000180010BD034202D050831E23F8E7012054
:109D0000034202D050831323F2E71020034202D013
:109D100050834223ECE72020034202D050834123AA
:109D2000E6E7138D0B800023E2E70000F0B585B075
:109D30000600009115001720002A28D0B3790530BD
:109D4000002B24D000243368019380235B0204217C
:109D5000019A127E0A421CD002AB9F1D00233900DB
:109D60003B8030000E4B9847002810D100993A886C
:109D7000631C0A5571799BB201290FD100990234F5
:109D8000120AA4B2CA54013DADB2002DDDD105B016
:109D9000F0BD013B002BDAD11220F8E71C00F2E7FE
:109DA000C39C0000F8B5584B8000C4582568EB6987
:109DB000002BFCD12B7EAF7D1F40230030331A785F
:109DC0005E78012316401F4219D0E28D002A00D18F
:109DD00072E0A26A511C1378A1626179DBB2012999
:109DE00064D09BB2DB05DB0D2B85E38D013B9BB281
:109DF000E385002B03D101332B750133AB750223AF
:109E00001F4209D02B752300002233331A70F30749
:109E100002D52000E368984704231F4227D0A28D73
:109E2000002A00D16DE06B8BDBB21A0746D43F22CB
:109E3000134045D002221A2113420FD104221E21C1
:109E400013420BD101221321134207D110224221C8
:109E5000134203D12022134204D041212300323384
:109E600019706A83730702D520006369984710232D
:109E70001F4206D02B752B761E4202D02000E369CC
:109E8000984720231F4206D02B752B76330702D527
:109E90002000A369984708231F4206D02B752B7614
:109EA000B30602D5236A20009847F8BD51780232E4
:109EB00009020B43A26295E72B75A0E73722B7E7AB
:109EC0002B8D616ADB05DB0DDAB20A70626A511C08
:109ED00061626179012904D11B0A5370636A0133FD
:109EE0006362A38D013B9BB2A385002BBFD10422EB
:109EF0002A75220032321370B307B8D520002369C7
:109F0000B4E72B75B3E7C0465822002080230349ED
:109F10005B00CA681A42FCD07047C046000C004083
:109F20008023DB059A78824205D001229A719870CD
:109F30009A79002AFCD000207047000002230449CF
:109F40000A781A430A70034A10781840FCD1704707
:109F5000280C0040380C004070B5082806D808F0DE
:109F6000D5FF0805053030130B162800002420000B
:109F700070BD164B1C69FAE7154B1C7D2407A40F16
:109F8000601C144C4443F2E7104B5C69EFE70F4D43
:109F900000242B689B07EAD50F4B984724222B6897
:109FA0001340042B10D120000C4B9847AC68A4B28E
:109FB000E8E70B4B00241B789B07D8D5034BDC68E4
:109FC000D5E780242402D2E7064CD0E738020020EF
:109FD000000C004000093D000D9F000095A6000008
:109FE000280C0040006CDC0230B503250A49847857
:109FF000427800780B7D28400935AB43800003434D
:10A00000012002403F309201834313437F22E40149
:10A01000134023430B7530BD000C004010B5837A0C
:10A0200082899B069205920D1B0C1343184A5360BC
:10A03000417A037AC4880B43818821430B434178DA
:10A040000478C9010B43817889010B431360042C08
:10A050000DD1837B418A9B060B43018A0D4809047D
:10A0600001400B43936013681C43146010BD202C07
:10A07000FCD1837B418A9B060B43018A0548090476
:10A0800001400B4393601168034B0B431360EDE7F2
:10A09000380200200000FF0324040000F7B5037D10
:10A0A0000400C5682A4E012B05D1018A2800013120
:10A0B0004900B0470500A36829001801B0470F21E7
:10A0C000227866780309B601D2013243214F013B61
:10A0D000D2B201401B053A701B0D0A04134304223F
:10A0E0001D4EF3621D4B01961F781742FCD10327CA
:10A0F000A278E3781203DB001A432379184E9B0001
:10A100001A43A37C3B401A43238A1B043340E026B6
:10A110001343E27CF6001202324030261343227DC4
:10A12000120132401343019A1363637D1F400D4BAC
:10A130001F700823094A12781A42FBD10F23984353
:10A1400041184D43637D0433DD40074BDD60F7BDAF
:10A15000212F0100280C0040000C0040380C00406A
:10A160000000FF07340C004038020020F8B5082832
:10A1700006D808F0CBFE1405050C0E1A0720340093
:10A180001720F8BD0223174A117D0B4313750020D9
:10A19000F7E70223144A91690B439361F7E702231F
:10A1A000104A118A0B431382F1E702230E4A5169C8
:10A1B0000B435361EBE7022200240C4E094D336838
:10A1C0000B4F134333602A83B847B3682B6273681D
:10A1D000EB612C83B84733689BB22B83D7E7054BE1
:10A1E0009847CEE7000C00400010004038020020E5
:10A1F0000D9F00003D9F000000B508282FD808F0F3
:10A2000085FE122E2E2E0C18051E28000221154A3E
:10A21000137D8B431375002000BD0221124A936900
:10A220008B439361F7E702210E4A138A8B43138213
:10A23000F1E702210C4A53698B435361EBE702219A
:10A240000A4B1A688A431A601B68064A9BB213833A
:10A25000E1E70221064A13788B431370DBE71720EE
:10A26000DAE7C046000C0040001000403802002031
:10A27000280C00408023F0B503251E2102206E4FDC
:10A280005B00BB606D4B6E4A9D60536891B08B4321
:10A29000034353606B4B9847002401230AAE3100FF
:10A2A00073602000684B7470347274723570984714
:10A2B000664B0620984705A8654B4470057084706E
:10A2C0009847644B062098471023FA681A42FCD03E
:10A2D0000123002473600533337020005A4B310092
:10A2E000747034727472984780223B7D05A81343C2
:10A2F0003B753F2383813B3B0370574B8480C48075
:10A3000004724472847044701B689B0E3F2B00D112
:10A31000203B837203234382072383733F230382FB
:10A320004E4B98474E4B9847012506230024310099
:10A3300033702800444B747034727472756098479F
:10A340002800484B98470623337010233100736070
:10A3500002203D4B74703472747298470220414B56
:10A36000984708233370063B310073600320364B57
:10A37000747034727472984703203A4B98473100D6
:10A380002000394B357098472000384CA0470223F5
:10A3900001A90B702800344B98472800A0470720DC
:10A3A0002C4B9847D0221201FB6813409342FBD1FB
:10A3B000002301227370B370F37033717375F374FB
:10A3C000B37433702A4B3282F3602A4B9218B36015
:10A3D0003000294B32759847284B9847032228496B
:10A3E0000B781340032BFBD1264A833B11780024C2
:10A3F0000B4313700123244D02A9AB716B712B71B8
:10A400004B6006330B7020000F4B4C700C724C727B
:10A4100098472000134B98471C4B200098472979F8
:10A420001B4BC9B298471B4B984202D82000054BE2
:10A43000984711B0F0BDC046000C00400014004029
:10A4400000400041219F0000D9A40000F9A10000B4
:10A45000E99F00006DA10000206080001DA00000A9
:10A46000B9A4000071A5000071A6000011A60000AB
:10A4700040420F00804A5D059DA000003D9F000006
:10A480003C0C0040280C004000040040A9A500003E
:10A49000212F0100001BB70004228240044B054815
:10A4A0005B6818401040431E9841C0B27047C046D8
:10A4B00000180040FC0700004023054A51690B4387
:10A4C00053610123034A137011781942FCD170477C
:10A4D000000400400018004070B54B7805000C786F
:10A4E000002B02D08023DB001C434B7A002B02D0D0
:10A4F00080231B011C434A68012A13D9531E1340B1
:10A500000220002B07D0802312049B001A4314431F
:10A5100008E0013340009042FBD3802252011443F3
:10A520001B041C430B7A002B02D080239B011C438D
:10A5300028000B4EB0470028FAD10A4B98478021DB
:10A54000094BAA00D218136A49000B401C4314623D
:10A550002800B0470028FBD1044B984770BDC04687
:10A5600099A40000AD81000000180040E1810000C6
:10A5700010B504002000084B98470028FAD1074B7B
:10A580009847074BA400E4188023226A5B0013431A
:10A590002362044B984710BD99A40000AD810000D0
:10A5A00000180040E1810000F8B504002000124BC3
:10A5B00098470028FAD1114F0834A400104B98474F
:10A5C000E059104B0007000F9847E659E459F6048C
:10A5D0000D4BF60F0500240C9847002E08D1012CD6
:10A5E00004D928002100094B984705002800F8BD30
:10A5F0000134E540FAE7C04699A400000018004085
:10A60000AD810000599F0000E1810000212F010071
:10A6100010B50400074B9847074BA000C118402312
:10A620000800CA6F1A43CA67C26F1A42FCD0034BB4
:10A63000984710BDAD81000004180040E181000082
:10A6400010B50400074B9847074BA000C1184023E2
:10A650000800CA6F9A43CA67C26F1A42FCD1034B03
:10A66000984710BDAD81000004180040E181000052
:10A6700070B50D00054B040098470F222B7820344D
:10A680001340034AA400A35070BDC04641A6000079
:10A690000018004010B50400064B98472034064BC4
:10A6A000A400E458054B2407240F98472000044BCE
:10A6B000984710BDAD81000000180040E181000006
:10A6C000A9A50000D37830B5002B35D11478802CA3
:10A6D00003D0802324065B02234302255478AC4335
:10A6E00006D19478002C24D18024A4022343416015
:10A6F0005478013C012C01D8124C2340A0248DB287
:10A70000E4052C431C438462D0240D0C24062C4306
:10A710001C438462D478002C0AD15B0303D5937860
:10A72000012B0CD181615378013B012B00D8816052
:10A7300030BDC024E402D9E741600023DEE7416177
:10A74000F1E7C046FFFFFBFF10B503000A00440914
:10A75000C1090020814202D10449E00140181F21B3
:10A760000B401E399940024B984710BD002800400D
:10A77000C5A600007047000010B5054B9847054B73
:10A780009847054B9847054B9847054B984710BD90
:10A7900075A200001182000075A70000DD86000090
:10A7A00075A70000931C9B001950037E022A04D158
:10A7B0000E321343037600207047032A01D11D3265
:10A7C000F7E7012191400B43F4E7000070B5012643
:10A7D000144B8000C4582368227E657E9B7A154006
:10A7E0001D40354204D0A3682000984723689E721C
:10A7F0000226354204D0E3682000984723689E7201
:10A800001026354204D023692000984723689E72A1
:10A810002026354204D063692000984723689E7241
:10A8200070BDC0467022002010B50020014B984733
:10A8300010BDC046CDA7000010B50120014B9847C0
:10A8400010BDC046CDA7000010B50220014B9847AF
:10A8500010BDC046CDA7000000B51723042809D8B5
:10A860000D4B08F053FB03090D1115005A691143F4
:10A8700059610023180000BD9A6911439961F8E7F6
:10A88000DA691143D961F4E71A6A11431962F0E7F2
:10A890005A6A11435962ECE7000400407FB50C4B43
:10A8A0000100180001AA70C870C2019A91420AD032
:10A8B0005A68914209D09B6800208B4201D1023036
:10A8C000C0B204B070BD0020FAE70120F8E7C0462E
:10A8D00040720100F0B5924B05008DB008000E00EB
:10A8E000140098471B2302AA137253720233937207
:10A8F0008C4B01900C3306AA83CB83C283CB83C2DB
:10A900000023AB60EB602B616B612B766B76019B58
:10A910009A00854BD55023002E6034331B78AB76DC
:10A92000E378082B04D1019A1720D20700D5E3E081
:10A9300001222B7133680520134200D0DCE0022194
:10A94000F37A17300B4200D0D6E033680B4000D0CA
:10A95000D2E0217C002908D005A9CB70237E207D80
:10A960000B70724B8A704A709847237F002B0ED071
:10A970000022012305A9CA7024328B70A2184B70E3
:10A980001F33E31812781878684B0A709847102024
:10A99000019A02A9D200091888581021019B02AA25
:10A9A0005F007B1C9B005218D158C0B2604B984787
:10A9B000E378082B10D1019B012B0DDC1021FB1C2F
:10A9C00002AA02375218BF00D05902AA9B0052189F
:10A9D000D158C0B2564B98470820237803A9019A52
:10A9E0000B7002AB1B189F5C524B38009847524BC0
:10A9F00038009847E279E3781343A2881343627AD8
:10AA0000002A02D0802252021343A27A002A02D0E6
:10AA1000802292021343E27A002A02D0802252035B
:10AA20001343227B002A02D08022920313436278D0
:10AA3000A1789201C9010A43296813430A69002ACF
:10AA4000FCD133602A681369002BFCD1A3793373DE
:10AA5000637B5A1E9341A27B9B00002A01D00122F6
:10AA6000134329680A69002AFCD1FF323271002B96
:10AA700004D029680A69002AFCD17371237A7373A0
:10AA80002B681A69002AFCD12A79042A16D0082AD0
:10AA900034D01720002A2FD11A69002AFCD1238D27
:10AAA000B3822A681369002BFCD1638DB3832B68B2
:10AAB00018690028FCD1A38DF3831DE01A69002AD0
:10AAC000FCD1230028331B7833752A681369002BC7
:10AAD000FCD1230029331B78F3762A681369002BF5
:10AAE000FCD123002A331B7833772B6818690028A0
:10AAF000FCD12B34237873770DB0F0BD1A69002A8E
:10AB0000FCD1A36A73612A681369002BFCD1E36A44
:10AB1000F3612B6818690028FCD1236B3362EBE7E3
:10AB20009DA80000407201007022002049A700008B
:10AB300059A8000071A6000011A6000003681A6958
:10AB4000002AFCD11A7101680A69002AFCD18032FE
:10AB50005A715A7952B2002AFBDB02681369002B42
:10AB6000FCD10179042907D0082908D01800002950
:10AB700004D1908A80B201E0107DC0B27047506964
:10AB8000FCE770B5040003681E69002EFCD125792E
:10AB9000042D10D0082D21D01720002D18D11720FA
:10ABA000012915D8A07E92B2002812D01831490090
:10ABB000CA5228000CE01720012909D8A07ED2B281
:10ABC0005918002803D030310A70300000E00A77AD
:10ABD00070BD0C3149005B189A80F9E717200129F4
:10ABE000F6D8A07E002803D00C318900CA50ECE7CB
:10ABF0000631890059184A60EAE7FEE71148124910
:10AC000070B5884204D00023104CCA18A24213D356
:10AC100000210F4B0F4A934212D3FF210E4B0F4AD4
:10AC20008B43936080230E4A51680B4353600D4B56
:10AC300098470D4B9847FEE7C55804331560E4E785
:10AC400002C3E8E7F486010000000020F4010020C0
:10AC5000F4010020FC4900200080000000ED00E02D
:10AC600000400041095C0100B912010070B50E00FE
:10AC700014001500002808D0012040420CE0074BCA
:10AC8000013D1868064B1B689847611B7118002D21
:10AC9000F5DCE043C017204070BDC0468422002090
:10ACA0007C220020013870B50E0002280DD80C005F
:10ACB0008D18A01BAC420AD0054B21781868054BB3
:10ACC00001341B6898470028F3DA0120404270BD28
:10ACD0008422002080220020054B020019680029F0
:10ACE00001D104491960186882181A607047C0467B
:10ACF00050020020006A002001204042704780235B
:10AD00009B0100204B607047012070470020704776
:10AD100073B56B469C1D002306000D0023802100A7
:10AD20003000034B98470028F9D123882B7073BD5E
:10AD3000C39C000070B504000D00A9B22000024BB6
:10AD400098470028F9D170BDA19C000037B56B462B
:10AD5000DC1D012221000D4B0D48984772B6BFF350
:10AD60005F8F00200B4A25780B4913780B4C087035
:10AD7000E5549B2B06D1107001230B70BFF35F8F3E
:10AD800062B637BD01331370F6E7C0462D9D000053
:10AD90005402002024030020080000208802002024
:10ADA000024B1A68D369002BFCD170475402002073
:10ADB00010B5094B1C68094B200098471F23184009
:10ADC0001E3B8340064A1360064B984702232268C5
:10ADD0001343236010BDC04654020020A994000014
:10ADE00000E100E0A1AD00008023F0B5DB0591B0EB
:10ADF0006A460093FF2313816B4601260533DE77F5
:10AE00006B460633DE776B4600240733DC7702ABF4
:10AE1000DC770BAB1C702D236B441C7013239376D3
:10AE2000C4239B03039301235B420C930D93264B96
:10AE3000264D0E93264B94720F9396231B02089374
:10AE4000244BD4721482D4761476147754765477C3
:10AE50001D60214A214B01940A9405941A60204AEE
:10AE6000204B21491A6028006A46204B9847204F02
:10AE700021003B6898681F4B98473B682100586841
:10AE80001C4B98471C4B98471C4C2F68A0478023AD
:10AE90007A685B0213437B60EE71A0472F68A0477E
:10AEA00080237A689B0213437B60AE71A0471449EC
:10AEB0000320144B984704230B4A93758022124BAE
:10AEC00012011A6011B0F0BD0200180054020020F7
:10AED000020019008422002035AD000080220020ED
:10AEE00011AD00007C220020000C0042C999000036
:10AEF0009001002005640100B1AD0000A1AD00008B
:10AF00004DAD00007194000000E100E00122024B11
:10AF10001870024B1A707047482300202503002048
:10AF200010B5094B0278094C1A7042785A700A78A9
:10AF3000188822704A78064B627098472088054B23
:10AF40009847012010BDC0460A230020642300203A
:10AF500001BC0000E5BB0000F0B50D00A7B0090979
:10AF600001900091290702D029090131009149215E
:10AF7000364802AE017000210D203170B2700A0017
:10AF80003100707031482C9C1718A45C7C702C9C8C
:10AF90008F18A45C0132FC71082AF4D1DAB2CA70AD
:10AFA00042721A04120E0A7182721A021B0E8B71FF
:10AFB000037300240423264F120E4A71CC7343738B
:10AFC0003900244BC2728473C573984706AB325D57
:10AFD000E2540134102CFAD129000F31A1421FDABA
:10AFE0000021009A10350132EDB2120195421FDBAB
:10AFF0000024009BA3421FDB0023220106A98A181C
:10B000001249C8180578D15C013369400170102BD2
:10B01000F6D139000D480F4B01349847E4B2E8E708
:10B02000019A1219103A12781A550134E4B2D5E790
:10B0300059550135EDB2D9E70023074A0348C15CF1
:10B04000D1540133102BFAD127B0F0BD18230020C2
:10B0500064720100DDBC000050230020F0B50D78C3
:10B06000ABB003900491140005932F092B0700D077
:10B0700001372A000399324B0EA89847314E290018
:10B080007368059A0093039823002F4DA847002169
:10B09000049B3A011B78934221DB01220AAB1A7010
:10B0A00000227068855C991801324D70082AF9D128
:10B0B000220A5C729A72220C240EDA721C73042229
:10B0C00000245A739C73DC73A7420FDA049B0EA909
:10B0D0001A7803981A4B984701202BB0F0BD282509
:10B0E00004A84019C1540133DBB2D4E7002306A8F9
:10B0F0000AAD5A5D1A540133102BFAD11349144B7F
:10B100009847621E0EA912018A18124900238C4624
:10B11000EE7B06A8C15C002E0DD10F4DED5C6940A1
:10B120006546E9540133102BF4D101360AAB0134E2
:10B13000DE73E4B2C8E7D55C6940D154F2E7C0469B
:10B140006F5C01001023002059AF00006472010001
:10B15000DDBC0000382300205023002010B5074A32
:10B16000074B1478197800208C4205D15B78507811
:10B17000C01A43425841C0B210BDC0463823002017
:10B1800060230020F0B5ADB01D0032AB1B780C7809
:10B190000793230905900E0006920393230702D01C
:10B1A00023090133039310AF2200364B0599380071
:10B1B00098470022039B1B019C4238DB01220CAB09
:10B1C0001A70002206989918805C01324870082A8B
:10B1D000F8D12A0A9A722A0CDA722A0E00241A73FB
:10B1E00004225D725A739C73DC73039BA34222DAC0
:10B1F0003178069B0439C9B231700093224C2B0080
:10B20000079A10A8A04700232049214D214CEA5C51
:10B21000E05C4240CA540133102BF8D1327810A9B7
:10B220000598184B98471C4B98472DB0F0BD3A55E0
:10B230000134E4B2C0E7002308A80CAFDA5D1A5469
:10B240000133102BFAD11549154B9847FB7B611E32
:10B2500004930023090110A808AF4118049AF85C70
:10B26000002A0BD10A4AD0540133102BF6D1049A8C
:10B270000CAB01320134DA73E4B2B6E7CA5C504079
:10B28000C854F1E76F5C010059AF0000382300207B
:10B2900028230020502300205DB1000064720100CB
:10B2A000DDBC000010B5002809D10B781A2B05D899
:10B2B000044A18001370044B9847012010BD002069
:10B2C000FCE7C0466623002051BC000037B5124B96
:10B2D000019100909847114D6C462B0006CC06C397
:10B2E0000F4B984704000F4B012098470E4B68689E
:10B2F0001C700E4B98470E4B0022190080311A70BB
:10B300000A701900FF314A70C021012049005A54C7
:10B31000084B18603EBDC0461DBB00001023002036
:10B3200079BC0000D1BB00008822002009BD0000CC
:10B33000842300204C230020F0B591B009AD041CFB
:10B340000990696008001100079317AB1B78161C61
:10B350000893E3B2AA609A06D20F090A0492F2B2E5
:10B3600005900192CFB25A0701D50122019208221D
:10B370001A4011004A424A41032419005242174020
:10B380002140012902D04C424C41E4B2844A6889F0
:10B390001288824200D0B5E08248824200D1B1E0FA
:10B3A0004022052014433F3A03920200019D0832D7
:10B3B000002D00D0821C15000835E8B20290002F45
:10B3C00002D00232D2B2029224221340202B00D1AA
:10B3D0001C43032906D100230127049303931C0077
:10B3E000073302932020049B09AA590113786E4E5B
:10B3F00083430B43137006930823069A1A4200D125
:10B40000CBE06A4A1C432300126816A90798684DCE
:10B41000A84716AB1B780933029AD518069A624BD7
:10B42000D24335705C70920700D06FE08022614992
:10B430009A700A78501CDA7004220870039B5A49EB
:10B44000002B08D15648531C0478DBB28C5440784A
:10B450000232D2B2C854002F00D18AE05648037895
:10B460008B544078931C0132D2B2DBB28854202432
:10B47000049A09A950010A78A24302430A701207EC
:10B4800012D50022484C494998188D5CC0B201324F
:10B490002554042AF8D108681A1D013008600021DB
:10B4A000D2B20533DBB2A15416AA127807989A18C3
:10B4B0003D4CD2B2591C93426AD1404AC9B210786D
:10B4C000F054507870549078991CC9B27054D27866
:10B4D0000333DBB2F254079A394B20211A60189AD1
:10B4E000384B0DA81A606A465218374B12784660DE
:10B4F0001A7000230370354B8360354B9847012049
:10B5000011B0F0BD0022072003924EE7019A002AF5
:10B5100017D08822002F00D1C8229A70254B1A78A4
:10B52000511C1970204BDA7009AA917A1971D27ADC
:10B530005A71069A520709D5FF229A71DA710822C8
:10B540007CE78C22002FE8D1CC22E6E7019A002A82
:10B5500005D0059A12789A71059A5278EEE7019A09
:10B560000599885CD11801328871082AF8D1063211
:10B5700064E71100174B083158680B4CC9B2531CD3
:10B580000578DBB2A55401301A009942F7D16EE775
:10B5900005780130E554CBB28CE716AB1B783BE75E
:10B5A00064230020FFFF0000892200204C2300209C
:10B5B0005DB00000882200200A23002038230020EC
:10B5C00030030020280300202C0300200DAF0000D2
:10B5D00049BA000010230020044B1B78032B03D82A
:10B5E0000021034ADB0199547047C046090000203E
:10B5F00084230020FF23F7B5B34AB44D1370002312
:10B60000D801285CD9B2002820D01170137800200E
:10B61000032B1AD801214027AD4CDB01EA1849421F
:10B620005678218291782070E0733330374081431F
:10B63000882900D1E6E00DD8082900D119E1802938
:10B6400000D1CEE0A34B98470020FEBD0133042B70
:10B65000D6D1DBE7C82917D0CC293FD08C29F1D12E
:10B660008020404220708130E073E85C002F00D1E0
:10B67000F4E017795279133862741A000D32AA185F
:10B680002774626020731AE09079FF2804D1D27980
:10B69000FF2A01D1FB3A22708022207852420243D5
:10B6A0002270EA18002F0CD010795279207462743D
:10B6B0001A000832AA186260EA5C133A2273103347
:10B6C0001DE0107A527A207462741A000A32AA18A5
:10B6D0006260EA5C153A2273123310E08020404227
:10B6E0002070E85C002F70D0177952791938627495
:10B6F0001A000E32AA182774626020731633EB18F2
:10B70000A36033073FD5BF299CD90027A3685E7883
:10B7100019789A78360212040E431643DB78360203
:10B720001B06360A1E436C4A3B011068C018037B97
:10B730007F2B00D9ACE001370A2FF4D1237BA0681E
:10B74000053BDBB22373C3185978644A0530117086
:10B7500099785170D97891701B796149D3705A4B9F
:10B760001B78DB01ED186B785E4D00936268330047
:10B77000A847002800D165E7A36822780533A360B5
:10B7800008231343237007204F4B19784F4BC901EF
:10B790005A1852780240012A00D18AE0002A00D1CA
:10B7A0008DE0032A00D04DE7494C207890430122D8
:10B7B000024322705C5C5B181A19013A4448127803
:10B7C0001B5D8273437301203FE7977BD27B1B385D
:10B7D00062741A001032AA1827746260207318333A
:10B7E0008DE77C20404220707D30E07310795279E3
:10B7F000207462749A1DAA186260EA5C08330B3ADE
:10B8000022737CE79079FF2804D1D279FF2A01D1F5
:10B81000FB3A227080222078524202432270012299
:10B82000E273EA18002F0CD1107A527A20746274F5
:10B830001A000A32AA186260EA5C0C330F3A2273CB
:10B840005DE710795279207462741A000832AA18E0
:10B850006260EA5C0A330D3A227350E7577B927BB1
:10B86000153862741A000F32AA18277462602073A8
:10B8700032E79079FF2804D1D279FF2A01D1FB3A2F
:10B8800022701248C25C08330A3A22731B1837E749
:10B890000F4B04305968144B9847002800D14AE7F1
:10B8A000FFB2124BBF00FA58B24200D9CAE6FE50AE
:10B8B00044E7032406480278A24302707AE7032291
:10B8C000034804782243F8E709000020842300207D
:10B8D000A4250020D9B500007C01002060230020B1
:10B8E000B025002085B100003DC10000C425002026
:10B8F000044B02001B780001002B01D13220504381
:10B900007047C0460C0000200A4B10B598470A4B00
:10B910001B68002B0CD0094C2278002A08D0084A5A
:10B920001178084A1078084A126898470023237053
:10B9300010BDC04629BD00002803002025030020BB
:10B94000482300202C03002030030020074B1878E8
:10B95000030703D44007C00F64387047142318400E
:10B960001438434258416238F7E7C0463603002096
:10B9700070B50F4D0F4B2A78002A14D10E4E1420AB
:10B9800031780E4C1A70A0473378002B0DD10C4B38
:10B99000082098471F230100287899430143082075
:10B9A000C9B2A04770BD1E22E8E729781320F8E746
:10B9B000350300203603002034030020F5DB0000AF
:10B9C00045DB0000F8B50F4B04001B78022B03D1B8
:10B9D00080220D4B52035A611F27032102200B4E78
:10B9E000B04701200A4DA84738400828F5D11F2745
:10B9F00021000220B0470120A8473840A042F7D1DB
:10BA0000F8BDC046B803002000280040F5DB000068
:10BA100045DB000010B50820074CA047074B0F205E
:10BA20009847074B1B78002B04D01620A047012213
:10BA3000044B1A7010BDC046C5B9000045DB0000BC
:10BA4000B7030020B803002070B50A4B0500102092
:10BA50009847041E03D1AB680120984770BD2900A8
:10BA60000C22054B0430984721000448044B9847AA
:10BA7000F4E7C04671D100006F5C0100782300201C
:10BA800035D3000070B51C48037A002B10D01B4D35
:10BA90002B78013B012B0BD80021194B9847041E32
:10BAA00006D083681B787F2B03D9C3680120984791
:10BAB00070BD1920134B9847134B0F209847A2686D
:10BAC000137802331370A368197818000139C9B2CA
:10BAD0000E4B9847032380222B700D4B52039A6123
:10BAE000C046C0465A6122790A4B20001A70E268AB
:10BAF0009A60094B9847DBE778230020B8030020C1
:10BB00006DD30000C5B9000045DB00005DDD00001D
:10BB1000002800406823002011D20000F8B5224B15
:10BB20009847224B98470023214A0C201370214A42
:10BB3000214D1370A8473F2301221F2718401F4E95
:10BB40001F4B30701A70082102201E4CA0470120A4
:10BB5000A84738400828F6D12E210438A0471720DE
:10BB6000A8474021184B0143C9B217201970A047BC
:10BB70002C20A8470F21154F0840013901432C20E4
:10BB80003970A0472C20A8479E2138700C20A04770
:10BB900002211620A047C1210520A0470C20A8475C
:10BBA0003F2318403070F8BDFDD9000015DB0000C0
:10BBB000B70300203403002045DB000036030020DB
:10BBC000B8030020F5DB000084250020742300204A
:10BBD00010B5024B1870024B984710BDB7030020F8
:10BBE00015BA000037B56B46C1B29D1DD880034C15
:10BBF0002220A04769782320A04737BDF5DB00004D
:10BC000073B56B46C4B29E1DD880064D210020201E
:10BC1000A847767821203100A419A847E1B22D2049
:10BC2000A84773BDF5DB000010B5064C2378022B46
:10BC300007D18022044B52035A61044B98470123D9
:10BC4000237010BDB80300200028004015BA000082
:10BC500010B5054B1870054B1B78022B01D1044B16
:10BC60009847044B984710BD35030020B8030020C7
:10BC700029BC000071B90000F8B51520124FB84773
:10BC80008021002449420143C9B2104B060015200F
:10BC9000984706200E4B984725000E4B01209847E9
:10BCA0000620B847032340091840A040023405434A
:10BCB000ADB2102CF1D1084B984731001520034B41
:10BCC00098472800F8BDC04645DB0000F5DB0000C2
:10BCD000C5B900005581000015BA0000002210B55A
:10BCE0000400064B08001100984700212000044B77
:10BCF00098472000034B984710BDC046DDD7000091
:10BD000075D70000F9D8000070B505002424200084
:10BD100001342978034BE4B2984701352C2CF6D135
:10BD200070BDC046F5DB0000F0B5344B85B09847D8
:10BD3000334C2378022B12D00F20324DA847030733
:10BD40000DD52678012E11D100232F4ADC01A2182F
:10BD500000921278002A24D00133042BF5D105B0CB
:10BD6000F0BDF85CC8540133DBB236E0032EF6D1E7
:10BD70000220A8474009C0B2002804D003280CD0F4
:10BD800005280CD00120214DAB6898470023AB60FB
:10BD90001F4B984701232370E1E70220F3E73000AF
:10BDA000F1E70720A84702ABDE1D01900121194BE6
:10BDB0003000984731784BB2002B17DB164F023119
:10BDC000144BC9B23800984732780F4B0232D6B2C2
:10BDD000E6547E2E0AD8012300999342C1DD0F4B11
:10BDE0009847094B1C19019B1818A0551F240120C6
:10BDF000A84720401628FAD1B1E7C04685BA00000E
:10BE0000B803002045DB00008423002068230020C5
:10BE100015BA00009DDC0000370300204DB900007A
:10BE20000021F0B50F4B1C780F4B1D68CAB2A2421F
:10BE300003D300D1FF221000F0BD2E680B01F318D0
:10BE40001E7B7F2E0BD907781E79B74207D1477822
:10BE50005E79B74203D186789B799E42EBD001315F
:10BE6000E4E7C046B9030020B825002010B5100053
:10BE7000014B984710BDC04611D2000070B5012497
:10BE8000074B084D1C702B68074C1B69002B03D017
:10BE900098472868A04770BD1000A047F9E7C04642
:10BEA000150000207426002011D2000070B5002576
:10BEB000154E337A9D4205D3002B02D11348144B03
:10BEC000984770BD00213000124B9847041EF8D0EF
:10BED000037C002B12D0013BDBB20374002B0DD18D
:10BEE0004368002B04D02200007D163203219847BE
:10BEF0002000094B98470135EDB2D9E72100300009
:10BF0000064B9847F7E7C046FC250020BC030020FD
:10BF100061D400006DD3000011D2000035D30000C1
:10BF200070B510000E4B0D0098470E4C002D14D02C
:10BF30002378022B0DD900220B4B0C4D1A800C4B91
:10BF40001B68934203D02A78082A00D09847082318
:10BF50002B7023780133237070BD2570FCE7C04639
:10BF600011D20000DC030020DE030020E1030020EA
:10BF70006026002010B501000400044B0020984703
:10BF8000002802D02278024B1A7010BDA5B2000022
:10BF90000C0000207FB56B469D1D01235B422B806A
:10BFA00000232F4A2F4C13702F4A304E1060304A16
:10BFB000304811600122190022702F4A32801A186D
:10BFC00004331160282BFAD102AA1078263B0343D0
:10BFD00078208343180040230343FA200340137062
:10BFE0002649274B02980391984726480378FF2B50
:10BFF00001D0254B984731002800244B9847244B0B
:10C00000244A1B7811781B010B431370FA23012576
:10C0100021489B008360214B05730361204B9847A7
:10C020006422204B20489A60204A1D73204D1A61DB
:10C03000A8472048A8472048A8472378072B09D1BC
:10C040001E4B1B78012B08D13C221D4B1A801D4B27
:10C050002D3A1A80002004B070BD0F221A4BF8E769
:10C06000F9250020E1030020B8250020C22500208A
:10C07000BC250020C42500208F7300000D00002087
:10C08000CDB200000C00002075BF000021AF000001
:10C090000A0000200B000020E803002059C6000021
:10C0A000B1D40000BC030020FC250020ADBE000080
:10C0B00029D300008C250020982500204C26002044
:10C0C000D4030020FC030020DE03002010B500286C
:10C0D00003D10800024B984710BD0020FCE7C04682
:10C0E00075BF0000032808D80F21044B044A1870BC
:10C0F000137800010B401843107070470A000020AD
:10C100000B000020002802D0014A10600120704777
:10C11000E4030020084B00201B681B681A00A032B3
:10C120009988002902D19979002901D00130C0B243
:10C1300010339342F4D17047B8250020002310B586
:10C14000C45CCA5C944204D10133082BF8D10120AD
:10C1500010BD0020FCE70000F7B5FF240025294BA7
:10C1600001901E68284B37685B6800933B7B7F2BF0
:10C1700008D9391D0098254B9847002805D02C0078
:10C1800001250BE0FF2C00D12C000135EDB210375A
:10C190000A2DEBD1E735FF2C32D000251C4B1B7844
:10C1A000002B2DD11B4A1849147022014868C75C26
:10C1B00030688018C01801330771082BF6D1802031
:10C1C000336840429B181F7B38430127187333683C
:10C1D0009818019B3B409C46037BBB4367463B430F
:10C1E00003738B68D97833689A18517300210A4B0E
:10C1F000A200D150094B1C70094B9847094B18708D
:10C200002800FEBDB8250020642600203DC10000A6
:10C210000A000020F8250020C425002088250020E1
:10C2200015C10000B9030020F0B587B005006846CD
:10C230001E000CAB1B78C18002930DAB1B7828202D
:10C2400003930FAB1B781700049310AB1B78059377
:10C250002A4B9847041E4DD0032300221E40067629
:10C26000954200D1059A012120230A405001227EE7
:10C270002E009A4302431300029A04200A40D2007F
:10C28000944608220E40B6008343334393430293FF
:10C290000023A61CF37763466618F577A943029D31
:10C2A00089011D432B004025AB43194380235B428A
:10C2B00019436B46DB882176E7616384A518002F5C
:10C2C00006D0C9B20E4B014216D13900280098475A
:10C2D0006A460E9B127C6361119BE5612361A31D7D
:10C2E000DA776A46127B631DDA7706482100064B2F
:10C2F0009847012007B0F0BD0222E6E771D10000A7
:10C300006F5C0100EC25002035D3000030B5214CD6
:10C3100087B0E278204B002A2AD01D78EDB2042D98
:10C3200026D11E4B05209847031E1DD08122027086
:10C330001B4A002412781B4942701B4A12788270F3
:10C340001A4A126892681278C2700120184A029341
:10C35000059201950490039400940300220009883B
:10C36000144DA847A04200D10A24200007B030BDD8
:10C370006078062801D0002807D107221A70E368E8
:10C3800098470023E3600424EFE7A27801201A70A5
:10C39000F5E7C04608260020E103002071D1000027
:10C3A0000C000020C22500200B000020B825002032
:10C3B000B9C3000029C2000010B51000074B0C00E3
:10C3C0009847074AD378013BD370002C03D102224F
:10C3D000044B1A8010BD044B9847FBE711D20000B4
:10C3E00008260020BA0300200DC3000073B50B001F
:10C3F00011006A46D07100200E4DD61D2A78824267
:10C4000016D00D4A0D4C1070069A2370E2600C484D
:10C410001A000C4B98472B783000A37008236370E8
:10C42000053BE37001332B70074B9847074B984748
:10C4300076BDC046E10300200A0000200826002047
:10C440000C2600206F5C010075BF00000DC30000CA
:10C45000F0B5484B8BB01878012101308500632D71
:10C4600009DD1831444B98476421C4B2434B28007E
:10C4700098476118C9B21825002401316943089111
:10C48000089BAB4201D10BB0F0BD64203C4B9847F8
:10C49000011EF8D0772303553648631C0278EEB2AC
:10C4A000DBB2CA543200A31C183ADBB2D2B2CA546F
:10C4B000231D0334E4B20E550424FF26DBB2079497
:10C4C0000990AA4217DB1C00FF20079B1A1BA31828
:10C4D000DBB2632B49D9012000222A4B02912A4961
:10C4E0000593049003920194009203000988274E5B
:10C4F000B0471835C4E709980078904226D92448F7
:10C50000170100680068C019047B7F2C21D90079CD
:10C51000C8541F4800680068C019407984466446C2
:10C52000581CC0B20C54D81CC0B2844618480068CD
:10C530000068C719BF79981CC0B20F546046043315
:10C54000DBB20A5407980430C0B207900132D2B26D
:10C55000B7E7581CC0B29F1CCE54FFB20E54D81C73
:10C560000433C0B2CE55DBB2EBE7631C0855DCB236
:10C57000ADE7C046B90300203530010001320100AB
:10C5800071D100006DBE0000C225002029C200004C
:10C59000B825002010B51000024B9847024B984771
:10C5A00010BDC04611D2000051C4000010B50F4BA1
:10C5B00086B0040001209847011E14D08223037026
:10C5C0000B4B00201B6824011A680A4B029105934B
:10C5D0000123094912190493039001930090043236
:10C5E0000988064CA04706B010BDC04671D10000B6
:10C5F000B82500206DBE0000C225002029C2000021
:10C6000070B5134DFF2813D100242B6826011B6839
:10C61000E0B29B191B7B7F2B01D90E4B9847002260
:10C620002B6801341B689B191A730A2CEDD170BD5D
:10C630002B6804011B681B191B7B7F2BF7D9054B4B
:10C64000984700222B681B681B191A73EFE7C04636
:10C65000B8250020ADC5000010B5384A86B0138853
:10C66000002B06D0013B9BB21380002B01D1344A32
:10C670001370344A1388002B06D0013B9BB2138001
:10C68000002B01D1304B9847304A1388002B04D03F
:10C69000013B9BB2002B0AD013802D4B1C88002C31
:10C6A0000AD12C4B1C88002C26D106B010BD0F23BC
:10C6B0001380294B9847F0E7013CA4B2002C01D02D
:10C6C0001C80EEE73C221A80244B22011B68E0B25A
:10C6D0001B689B181A7B7F2A07D99A7B002A08D1EE
:10C6E000DA7BFF2A05D01E4B984701340A2CEBD188
:10C6F000D7E700229A73F8E7013CA4B2002C01D0DE
:10C700001C80D2E70F2201201A80164B9847002880
:10C71000CBD07A230370114B13491B681A68134B53
:10C72000039405930123029000940493019304322F
:10C73000098820000E4CA047B7E7C046D003002070
:10C74000E0030020BA0300200DC30000FC0300201A
:10C75000D4030020DE03002051C40000B8250020CF
:10C7600001C6000071D10000C225002021BF0000D9
:10C7700029C20000F0B5140001228DB00A9312AB5B
:10C780001B780B90089313AB1F786E4B06911B78A8
:10C79000149E0792072B37D1802C35D803009C209C
:10C7A000022B34D14A780B7812029B18664A9BB24E
:10C7B00093422CD1654B9847051E02D10023079365
:10C7C00022E020226B460700466000269B181B785B
:10C7D000163703754475067422000A995C4B3800BD
:10C7E00098475C4B01200593089B5B4903933300FA
:10C7F0000496029701940096069A0988574EB0470E
:10C8000029005748574B984707980DB0F0BD4F4B3C
:10C810009847051ED2D0082246604D4B80180699D5
:10C82000984720226B469B181B782A002B75002303
:10C830002B744D4B16321B786C756F740992022B5A
:10C840006BD10B9B494E082B1CD133680698196895
:10C85000474B043198470790002813D022000A99CB
:10C860003B4B099898473B4B3B490593089B0497E2
:10C870000393099B0194029300230093069A09886D
:10C880001800BBE7CC232800AB75069B0A991B78E0
:10C890002200EB75069B1A305B782B76069B9B7803
:10C8A0006B762B4B9847211DC9B26975002F1CD0A0
:10C8B000032308982B743368284C1A682D4B039077
:10C8C00009980593029001230020019122490493C5
:10C8D000009004320988A04729002748214B984737
:10C8E0002648274B984707978EE7336838001A6821
:10C8F000184B01910593089B17490393099B0497D3
:10C9000002930123009709880432144CA047154B69
:10C91000290013489847012351E722000A990C4B3C
:10C92000099898470B4B0C490593089B0497039370
:10C93000099B0194029300230093069A098818002A
:10C94000E3E7C046E1030020FFFF000071D10000D3
:10C950006F5C01007DCF0000C225002029C20000CD
:10C960008C25002035D300004C260020B82500205F
:10C970003DC100001DD00000FC250020BC030020AC
:10C98000B1D40000F0B5B94B8BB09847B84C060055
:10C99000237A002B28D0B74B1B78002B24D0B64D20
:10C9A000B64B29689847B64F3B6898421CD920007F
:10C9B0000021B44B9847041E16D0B34B1860B34BFC
:10C9C00048209847B24B38602E600293A31DDB7F4E
:10C9D0000193631DDB7F00936369183407CCAD4C72
:10C9E000A0470023A34A1370AB4B9847002838D0C8
:10C9F0000322AA4901270D78A94C6B072A40DB0FB7
:10CA0000013A069353425341EE083E405A01069BB9
:10CA1000F6003343EE093740BF011A433A436DB283
:10CA20002270002D01DA4B6863600D8A8B68658087
:10CA30000E7BA36026738A7BA2734A7B6273227883
:10CA4000920600D45EE21A78872A00D15AE138D8DB
:10CA50007A2A00D12BE20AD8772A00D188E1914BBB
:10CA60009847914B9847914B98470BB0F0BD812A5E
:10CA70005ED0822AF3D102208D4B9847061EEED05D
:10CA8000922303708B4B62681B688B4F1D68069264
:10CA90002B00A03307932B7B7F2B00D826E2291D88
:10CAA0000698B847002800D120E200232B7373704A
:10CAB000824B0020059301230390049302960222E7
:10CAC00043E1972A00D142E11BD8912A00D198E096
:10CAD000922AC4D15B78002BC1D1764B66681B6863
:10CAE000754F1C682500A035237B7F2B00D804E2FE
:10CAF000211D3000B847002800D1FEE10023237338
:10CB0000ADE7CC2A00D173E1DA2AA8D100216C4824
:10CB10005C4B9847041EA2D04368002B04D022002F
:10CB2000007D1632002198472000664B984796E713
:10CB3000654A1278012A00D091E7644A1278012AE6
:10CB400000D98CE7624A59781278914200D086E782
:10CB5000604A954206D0604A1288AA4202D0F22565
:10CB6000022E03D898785D4B98470500A368DB78C0
:10CB7000AA2B31D0554B1B78012B04D16B1EDBB295
:10CB8000012B00D9F3256420494B9847021E00D1A0
:10CB900065E791230370524B45701B780321837026
:10CBA000012D08D84F4B02311B78C370414B1B68D5
:10CBB0009B681B7803714C4B002005930123039065
:10CBC00004930292019122781207D20F00926268B8
:10CBD0006188464CA04742E7002663680793354BBF
:10CBE0001F683B6807989B190693191D324B98479D
:10CBF000002802D0FF22069BDA731036A02EF0D157
:10CC0000B8E73B4A1278042A00D028E75B78012B6A
:10CC100000D924E730492F4B0A889A4208D11E20B8
:10CC200002ABC01801235B420380324B0D80984752
:10CC3000A168314B4A78012A13D105325A7000227B
:10CC4000DA70C878254B9847012805D802221E4B78
:10CC50001A702A4B0D321A80A3689A78284B1A70E2
:10CC6000FDE6002AEAD00122E8E7C04649D50000E7
:10CC7000EC25002015000020D803002091D50000ED
:10CC8000000400206DD3000074260020F1B80000DD
:10CC90007DBE000039B30000F5B50000A4250020DA
:10CCA00064260020D9B5000009B90000CDD40000E9
:10CCB00071D10000B82500203DC100006DBE00000C
:10CCC000FC25002011D200004C2600200A00002084
:10CCD0000C000020FFFF0000C225002059C1000009
:10CCE000F82500200B00002095C5000029C2000097
:10CCF000E103002021AF000008260020DE03002011
:10CD0000C0250020844A1278022A00D9A7E65A7862
:10CD1000824B1B789A4200D0A1E60320804B9847B3
:10CD2000021E00D19BE6972303707E4B1B78437055
:10CD30007D4B1B689B681B7883707C4B00200593A0
:10CD40000123029203220493039001923BE7784B64
:10CD50001A78092A00D082E60025023A754C1A702A
:10CD60006E4B657018782900E3689847E56076E6B1
:10CD7000714A1278022A00D071E65A786F49704ED3
:10CD80000A70191D6433CD78FF2D08D0AF00F41957
:10CD9000E5700D78BD554D7865708D78A5700431BE
:10CDA0009942F0D166499200013252180021654B38
:10CDB0001C785D78644B9A4210D1002900D04EE671
:10CDC000624B5B4C1980624B1B68002B03D02278AE
:10CDD000082A00D098470823237040E65E1E367864
:10CDE000A64203D11E78AE4200D101000433E2E72F
:10CDF000514A1278012A00D031E6581C554B984709
:10CE00000600FF2800D12AE69C20454B9847051EC6
:10CE100000D124E60822444B36011F6880183B6885
:10CE2000991904314C4B9847636803211A78AA7505
:10CE30005A78EA759B782B76207BA3682C00043304
:10CE400019344A1CD2B2904218D801246975EC7486
:10CE50003A6896197E22337B9343802B14D13F4B43
:10CE60009847322800D8FAE5002329006B603C4837
:10CE700018332B746C743B4B9847F0E519780133E9
:10CE8000217001341100DCE7374B002005932B00A3
:10CE90000191163335490494039402930090098854
:10CEA000321D0300324CA04729003248E3E7224BF1
:10CEB0001B78012B00D0D2E51B4B62681B681078F1
:10CEC0001B681900A0311C7984420BD15D7954781C
:10CED000A54207D19D799478A54203D19A7B01326E
:10CEE0009A73BCE510339942EDD1B8E5079B103534
:10CEF000AB4200D0CFE5F023D9E51034A54200D0F5
:10CF0000F2E5ACE50A4B1B78072B00D0A7E51A4BDE
:10CF100020001B680AE6C0460A0000200C00002022
:10CF200071D100000B000020B82500206DBE00006C
:10CF3000E1030020502600204C260020D2030020D0
:10CF4000182600200D00002019260020DE030020F6
:10CF50006026002021BE00006F5C01007DD2000031
:10CF60009825002035D300001DD00000C2250020E8
:10CF700029C20000FC250020E4030020F0B51E4B70
:10CF800087B005000E001D48002117009847041EB9
:10CF900030D04368002B06D0827C012A03D03A00AF
:10CFA000310028009847E37C002B20D02000144B50
:10CFB000163098470500FF2819D00120114B9847DB
:10CFC000011E17D0DA2303700F4B00201B682D01C0
:10CFD0001A680E4B0291059301230D4952190493CF
:10CFE000039001930093043209880A4DA84720005A
:10CFF000094B984707B0F0BD6DD300008C25002089
:10D0000021BE000071D10000B82500206DBE0000D7
:10D01000C225002029C2000011D20000F0B5364B15
:10D0200089B01B7807900F0006920026012B53D081
:10D030000025002954D0314E337AAB4250D900211B
:10D0400030002F4B9847041E4AD0037D079A934225
:10D050004DD10300069A16339A4248D14368002BFB
:10D0600002D03900079898472000264B9847013591
:10D07000EDB2E0E700212800214B9847041E2FD095
:10D080000300069A16339A422CD1002F1FD11000AC
:10D090001D4B98470500FF2819D001201B4B9847CE
:10D0A00000281DD0DA230370194B2D011B68194984
:10D0B0001A68194B521905930123029004930397A0
:10D0C00001930093043209883800144DA8472000CA
:10D0D0000C4B98470136F6B2084D2B7AB342C9D8AB
:10D0E00009B0F0BD01000E4B28009847F2E721007F
:10D0F00030000B4B9847BAE74C260020FC25002057
:10D100006DD3000011D2000021BE000071D10000DB
:10D11000B8250020C22500206DBE000029C20000F5
:10D1200035D30000002802D0014A1060012070476A
:10D130006026002010B503240A4A0B4B501EA04362
:10D14000011D19605342A343C024640112199B18A6
:10D15000064AC360136001230374002343608360A5
:10D1600010BDC0460804002004040020081C002054
:10D17000F8B5234E05003368002B01D1214B9847A9
:10D180002C1E2FD02A0003231F4F0F329A433868DA
:10D1900004320024824225D83168012623007642D9
:10D1A000002921D11C1E1DD099688C1A142C0CD971
:10D1B00099188C601C68002C00D061601C684B6062
:10D1C0000C6001240C7319609A6000219A6819732D
:10D1D000801A103338601C008B4203D018002A00DC
:10D1E0000A4B98472000F8BD0C7B002C06D08C68B9
:10D1F000A24203D8A64201D90B0026000968CFE756
:10D200000404002035D10000081C0020815C0100CE
:10D21000184B10381B68002B29D0834228D10122DB
:10D2200015481A7399680268521802605A68002AF1
:10D230000ED0107B00280BD09068411891601A68BE
:10D24000002A01D0596851605A68196811605B68FA
:10D250001A68002A0BD0117B002908D090689968C1
:10D260000918996012681A60002A00D0536070474C
:10D270001B68D0E704040020081C002010B5054BF3
:10D28000C0211868642349015843034B9847C0B232
:10D2900010BDC046081C0020212F0100F7B5050075
:10D2A0000191170072B6BFF35F8F00231D4A137000
:10D2B000037A002B08D1002401231A4A1370BFF30C
:10D2C0005F8F62B62000FEBD04682600002F0ED1DD
:10D2D000002CF0D0019B2600002B11D0ECE77968E0
:10D2E00060683B689847002804D126002468002C19
:10D2F000F5D1E0E7019B002BDED12B689C420DD1DC
:10D3000023682B606B68A34200D16E602B7A013BCF
:10D310002B722B68002BCFD16B60CDE72368336075
:10D32000F0E7C0460800002000230360436003725A
:10D330007047000010B572B6BFF35F8F00230A4A32
:10D340001370047A9C420BD1016041600B60037A38
:10D350000133037201231370BFF35F8F62B610BDF8
:10D3600044682160F1E7C0460800002010B50A00BB
:10D37000014B0021984710BD9DD2000010B5044A12
:10D380000448136801331360034B984710BDC0462F
:10D390007826002010270000F12D010070B5104DF7
:10D3A00082682C68002C18D023000026596891420E
:10D3B00009D9891A596033004260002B0AD01A68D3
:10D3C0000260186070BD521A19681E000029F3D05F
:10D3D0000B00EBE704602860F4E704604260FAE7C2
:10D3E0000C1C0020064A13780133DBB2137013784B
:10D3F000002B04D1034A13780133DBB2137070475A
:10D400007C2600207D26002010B50024094B0A4808
:10D410001C600A4B1C700A4B1C700A4B98470A4848
:10D420000A4B98470A4B98470A480B4B98470B4BB7
:10D430001C6010BD78260020E5D300007C2600206B
:10D440007D260020E12E01007DD30000ED2E01009D
:10D450005D2E010010270000F12D01000C1C0020A2
:10D46000002210B50B4C2368002B0CD019688342A6
:10D470000CD1002A08D011601A68002A03D05B681A
:10D480005168CB18536010BD2160F5E71A000B00FE
:10D49000EAE7C0460C1C0020044B1B68002B01D19E
:10D4A000180070478342F8D10120FAE70C1C0020D5
:10D4B00010B5044B04009847002802D12000024B0D
:10D4C000984710BD99D400009DD3000037B51A4B82
:10D4D0001A68002A1FD0EFF310814A424A41019294
:10D4E00072B6BFF35F8F0021144A1170019C186857
:10D4F00019608C4204D001231370BFF35F8F62B6B2
:10D500000A2545430E4A1468002C04D063689D42E6
:10D5100002D25D1B656037BDED1A23681360237B63
:10D52000012B02D12000074B98472369002BE9D03B
:10D5300020009847E6E7C046782600200800002033
:10D540000C1C00209DD30000F8B50D4D0D4F2E781A
:10D55000B847F6B20400C0462B789E4203D0B847C5
:10D56000240C24040443084908482A7820400C78F5
:10D57000120480B21043240604432000F8BDC046C4
:10D580007C260020A52D01007D260020FFFF00FF46
:10D59000884201D9401A70470138FBE710B5014BAA
:10D5A000984710BDC52E010010B5014B984710BD1E
:10D5B0007D2E010010B50248024B984780B210BD85
:10D5C000B82600203DAB00001021034B1A681172F1
:10D5D0005A7E8A435A767047B826002070B51025C7
:10D5E000094C23689D721800084B9847084B1A5C39
:10D5F0001F231A401E3B9340064A1360637E2B4351
:10D60000637623685D7270BDB82600209DA8000077
:10D610007472010000E100E010B502000021024830
:10D62000024B984710BDC046B826002083AB0000CF
:10D63000314A70B51300002434331C7001232F4D80
:10D640005B4214745461946114771462546253857C
:10D650002B492C4B28001470D47094809471D47191
:10D6600054709470147254729472D47214739473CC
:10D67000547314859485984722002349234C28002D
:10D68000A047022222492800A047224B2868984739
:10D690001F22214B1B5C13401E3A110099401F4B67
:10D6A00019606B7E13436B762B685A7218690028D9
:10D6B000FCD1022219680A431A60194B9847194E87
:10D6C000B0471949194B9847194D041CA847B04752
:10D6D000184B011C201C9847FC21174B89059847C3
:10D6E000002805D0FE21201C8905144B9847041CF6
:10D6F000201CA847C0B270BD80260020B82600209C
:10D7000000200042D5A80000A9D50000A5A7000070
:10D710009DD500009DA800007472010000E100E0AA
:10D72000A9A5000079400100002474494136010098
:10D73000ED320100613C0100853201001D33010022
:10D7400013B5041E0FD16B461870084B6A465B6810
:10D750006B46D87018715870022368469370044B5A
:10D760009847200016BD08204042FBE700400041DA
:10D77000DD870000F7B5144C1022661C134B0D001A
:10D78000010030009847124F637C3A780193114BA7
:10D79000002A13D0122221008320984700233B70D7
:10D7A000002D04D0611C10222800084B98476B46BE
:10D7B0001B7918206374084B9847F7BD112231007C
:10D7C00084209847ECE7C046101C00206F5C0100E5
:10D7D000431C0020C5DF000055810000F0B587B074
:10D7E000050001911700002817D000221026384BA1
:10D7F00001001A70374B02321A7037483200374B2B
:10D800009847374C32002900344B601C26709847EB
:10D81000112221008320334B9847002F03D0012F82
:10D820002BD0002027E02B4B1B78012B0BD1102293
:10D830002B4C2949294B601C22709847112221004A
:10D840008320284B9847234B1F70019B002B01D04E
:10D85000022BE6D170220821019B01201B011340FD
:10D86000FA000A40134380221D4952420B701343B1
:10D870004B741D4B187007B0F0BD164B1B78012B75
:10D88000E1D01025124E164C31782570002912D1A6
:10D8900080236374144B02A81F70144B21709847A7
:10D8A0003A00210083200F4B257098472A00104929
:10D8B0008420104B984710220D49084B601C984754
:10D8C000084B112221008320984701233370BAE7C7
:10D8D000221C002016000020331C00206F5C010079
:10D8E000101C002009DE0000431C002075D700003A
:10D8F000231C0020D9DE000010B501001022842076
:10D90000014B984710BDC046D9DE000082B0EFF34E
:10D9100010835A425341019372B6BFF35F8F0022C6
:10D92000024B1A70019802B07047C04608000020F0
:10D93000012210B5034B5A61034B1B68002B00D02A
:10D94000984710BD00240040441C0020002805D04A
:10D950000122034B1A70BFF35F8F62B67047C04657
:10D9600008000020024B1B68187E4007C00F70475C
:10D970001427002070B50D4E0D4B040035689847F4
:10D98000102200280DD00423698B0022194201D0F7
:10D990006B831E32B379012B05D1AB6ADB05DB0D3E
:10D9A0002380100070BDAB6ADBB2F9E714270020BA
:10D9B00065D90000024B1B68187E01231840704790
:10D9C0001427002070B5074B04001D68064B9847CC
:10D9D0000523002803D00023E405E40DAC62180001
:10D9E00070BDC04614270020B5D90000024B1B684B
:10D9F000187E8007C00F704714270020F0B53F2025
:10DA000000240126314B85B0314F01AD5C709C7014
:10DA1000187029002F4B38707C70BC706E70AC7021
:10DA20002E7098473A785309D109A1424BD11F2053
:10DA300002403000904002002748284CDB011B18B0
:10DA40009A61631DD9770C22254B264826706160A8
:10DA5000A16021746174A674E674217598478023CF
:10DA60005B02E360204B214EA361214B2200A362A5
:10DA700001235B42E3621F4B1F4923631F4B3000AE
:10DA800063631F4B98473368DC69002CFCD1022686
:10DA90001A68280032431A601A4B984720230193D2
:10DAA00080239B036B6001232900EB722000164B3F
:10DAB0002E726C72AC72984722002100134B1448EE
:10DAC000984705B0F0BDA461FFDEC046D626002011
:10DAD000D9260020958B000000280040DC2600207D
