:10000000B0210020B9130000B5130000B5130000A3
:1000100000000000000000000000000000000000E0
:10002000000000000000000000000000B513000008
:100030000000000000000000B5130000B513000030
:10004000B5130000B513000001050000A104000075
:10005000B5130000B5130000B5130000B513000080
:100060008D0800009D080000AD080000BD080000DC
:10007000CD080000DD080000B5130000B513000036
:10008000B5130000A1100000B11000000000000036
:1000900000000000C1100000B5130000B5130000FF
:1000A00000000000B5130000000000000000000088
:1000B0000000000010B5064C2378002B07D1054B3B
:1000C000002B02D0044800E000BF0123237010BDC4
:1000D000680000200000000050350000084B10B5FB
:1000E000002B03D00749084800E000BF0748036819
:1000F000002B00D110BD064B002BFBD09847F9E731
:10010000000000006C000020503500005035000059
:1001100000000000094B196800290BD1EFF3108093
:10012000074A002805D172B6BFF35F8F05490870F2
:10013000012111701A6801321A6070478400002092
:100140008800002000000020084B1A68013A1A605D
:100150001B68002B09D1064B1B78002B05D0012210
:10016000044B1A70BFF35F8F62B6704784000020A3
:10017000880000200000002030B599B002AD0400D6
:1001800058220A4928000A4B9847132C0BD8002301
:10019000A40001A960594B70CB708B7001330B70B8
:1001A000C0B2044B984719B030BDC046B833000008
:1001B000792B0000F10F000006220271C0225201CB
:1001C000C280020000232A32037043708370C37020
:1001D00003830362C361037243728372C372037346
:1001E0001370421D43738373C37303610375D37725
:1001F000C3840385437570470823F7B514009F4AED
:1002000001600600106A034313620B780520DB07C8
:1002100000D5D0E03268138C002BFCD10B781C2069
:100220009B0700D5C7E063783371002B04D1944A53
:100230000433D1690B43D361237801A90B701E20CD
:10024000904B356898471E208F4B984720798F4BED
:100250009847E0888D4B984700270123BB402269CF
:100260001A4202D03800894B98470137142FF4D135
:10027000637BA27B9B01D2011343DBB22B70237DF6
:100280006278DB011343DBB2AB70E378302B00D133
:100290009DE009D8102B00D196E0202B00D196E0EC
:1002A000002B0BD11A0090E0322B09D000D290E045
:1002B000332B00D184E0342B00D17DE017207AE08D
:1002C0000422102302217020090101400A432A73ED
:1002D00031680A8C002AFCD1617D3F29EED8E27B8F
:1002E000D2010A43D2B26A7331680A8C002AFCD167
:1002F000A278611D6A70CA7F207BD2008000104303
:10030000E27A0243A07A400002431A436A813268CB
:10031000108C0028FCD1228B9446002A06D0102B8A
:1003200000D19BE057D8002B00D188E062466B8952
:1003300013436B813268138C002BFCD1A38BEB81B0
:1003400033681A8C002AFCD1238C2B8233681A8CD8
:10035000002AFCD12379E28813432B8133681A8C5D
:10036000002AFCD123002A331B78EB7007232B7162
:10037000CB7F002B14D0E38C45498B429ED86B82F7
:100380003268138C002BFCD18023228D1B01D318E3
:100390009BB28B4292D8AA823268138C002BFCD17C
:1003A000E02100203B4BC9001B681A029B060A4053
:1003B0005B0F1343AB85FEBD617A227A102382E77F
:1003C0000622102301217EE7082200217BE700227C
:1003D000FBE70222F5E7202B17D0302BA6D1E37ADA
:1003E000E069002B09D003008033FF2B00D965E7BB
:1003F000236A8033FF2B00D960E7FF2800DD5DE72B
:10040000236AFF2B00DD59E790E7E07AE769224B8A
:1004100000280CD0802080003818984200D94DE781
:100420008022206A92001018984200D946E79F4225
:1004300000DD43E7226A9A4200DD3FE776E7E07A93
:10044000E769134B0028F2D080221201B8189842B5
:1004500000D933E78020226A0001E4E7E07AE76907
:100460000E4B0028E3D080221202B818984200D91F
:1004700024E78020226A0002D5E7C046000400403D
:1004800000140040190F0000B90E000079010000AF
:10049000FF0F000020608000FF030000FFFF00004E
:1004A000002370B501250B4C237023780F2B00D946
:1004B00070BD29009940084A5069084206D0516130
:1004C000064A9B009B58002B00D0984723780133A5
:1004D0002370EAE7CC00002000240040D000002078
:1004E00007B5802201AB1A700A785A704A789A7060
:1004F0008A781900DA70014B984707BDF10F0000A8
:10050000F7B5214B1C68E38EA28E26681A40009234
:10051000B38975891D402BB2002B07DA13005B05E8
:1005200001D5236B9847194BB381F7BDEBB2002B74
:1005300015D000270123BB4001932B4208D0009B1C
:1005400001223B41134203D0BB1C9B001B5998471F
:100550006B469B880137B381082FEBD1E5E78027F5
:100560007F003D4206D0009B3B4201D0A36A9847E2
:10057000B781DAE78027BF003D42D6D0009B3B42DF
:10058000F6D0E36AF3E7C046100100200080FFFFC9
:10059000F0B5002489B0009201933F230026002784
:1005A0002500069007910393039A134B0120002125
:1005B0009847B6197F41069B079A03400A40049664
:1005C0000597134303D0012333431E00059F019B6E
:1005D000BB4209D802D1009BB34205D8009A019BC7
:1005E000B61A9F4104430D43039B5A1E0392DBD26C
:1005F0002000290009B0F0BD511A000010B54908CB
:10060000040000234020A14201D210BD0300581C69
:10061000091B80B28C42F9D94020FF2BF5D81380FA
:100620000020F2E7F0B585B01E000AAB0D00197886
:1006300003004B4303924027AB4217D8002E18D13A
:100640000200330008001B4C3100A0472A000100C3
:100650003300194C3000A04700220123121A8B41AD
:10066000140C180404430027039B1C80380005B0B9
:10067000F0BD0024012EF6D10A00230021000D4E0A
:10068000B047009001910B000200210028000A4CA5
:10069000A047802306009B019842E7D8009A019B5F
:1006A000690FE800A047F400041BE4B2640334437C
:1006B000D9E7C046691A00009105000037B50D4C16
:1006C00005002378002B01D000290CD001A91120AE
:1006D000094B0D7098471120084B984701230020C3
:1006E000657023703EBD63780800AB42FAD01D20D0
:1006F000F8E7C04689000020190F0000B90E00007D
:10070000294B00B598422AD008D88423DB059842AB
:1007100015D0264B98421AD0002017E0244B98425F
:100720002DD0244B984232D0234B9842F4D1002054
:1007300003290BD8080001F00BF8341C1E200229F5
:1007400003D00329E8D11D4800E01D4800BD02295F
:1007500003D00329E0D11B48F8E71B48F6E7002047
:100760000329F3D8080000F0E9FF1A02D7D7174889
:10077000ECE71748EAE71748E8E71748E6E70229F1
:1007800003D00329C8D11548E0E71548DEE7022960
:1007900003D00329C0D11348D8E71348D6E713483C
:1007A000D4E71348D2E7C0460008004200040042E4
:1007B0000010004200040043000C00420300070048
:1007C0000300060003001F0003001E0003000900D1
:1007D00003001100030012000300130003000F00C8
:1007E00003000E00030019000300180003000800B6
:1007F0000300100070B586B06946094B6A4670CB9D
:1008000070C170CB70C1002399005158814202D150
:10081000D8B206B070BD0133062BF5D10020F8E741
:100820001034000070470000F0B5094C094A2378E5
:10083000002B09D11E00084F084DD750EE5004334D
:10084000182BFAD1173B237080001150F0BDC04621
:100850008B0000208C0000202508000014010020DF
:1008600007B508236A461370013353700133937040
:100870000133D3700133137101335371024B984725
:100880006B4618560EBDC046F507000010B5024B6A
:1008900000201B68984710BD8C00002010B5024B4B
:1008A00001205B68984710BD8C00002010B5024BFA
:1008B00002209B68984710BD8C00002010B5024BA9
:1008C0000320DB68984710BD8C00002010B5024B58
:1008D00004201B69984710BD8C00002010B5024B06
:1008E00005205B69984710BD8C000020F0B507001B
:1008F00093B0A64B39600800140004919847012377
:100900000200052855D00500010012350498006842
:100910008446664605201E4200D014E10498006813
:10092000844666461C20B60700D50CE198488B40EB
:10093000052A41D1026A1343036223002D331E00AE
:100940001B780CA9EDB20B702800924B9847280039
:10095000914B98470021914B30789847E37A7B710F
:10096000631DDB7FBB71A31DDB7FFB71E37E3B72ED
:10097000237F7B723B6803931800844B98471823AE
:10098000052801D00300123300250EAA1580228A03
:100990000826029280220299D20191421BD00FD8E0
:1009A000802210269201914200D1CFE0102600252E
:1009B00011E018251900A9E7C2691343C361BCE718
:1009C000C0220299D201914200D1BEE080220326CA
:1009D00012029142EAD122680692E26807926269A5
:1009E0000892227E0992E21DD27F0A9262680592E5
:1009F000220005990832002900D1A9E0802105983C
:100A0000490588420ED1D27F002A0BD1D8B2644B5F
:100A1000256A98470EAA0100624B280098470028D3
:100A200000D090E0637E002B02D0A37E039A9373E4
:100A30000EAE3388039A9381079A069B1343089A54
:100A40001343059A1343029A1343099A120213435C
:100A50000A9A5207134322000832D27F002A01D19A
:100A600004321343627E217F920249020A43617F6E
:100A7000E07A09020A43611DC97F49040A43A11DA6
:100A8000C97F09040A43A17A01430A432189FF2946
:100A900000D173E08020400403430A4321002C313D
:100AA0000978002903D140498978890701D5802137
:100AB0000B433868C1690029FCD103994A60396841
:100AC000CA69002AFCD103990DAD0B6080232B70FD
:100AD000236B6A700E93636BEA707360A36BAA70EA
:100AE000B360E36B1400F360A300F058E1B2002898
:100AF00002D104982D4B9847431C05D02870000C58
:100B0000C0B229002A4B98470134042CECD13B0099
:100B100000243033FC85FC603C617C61BC61FC617D
:100B20003C62BC627C62BC859C701C705C70DC703A
:100B30003868164B984705001E4B1F499847200000
:100B40001E4BAD00EF5013B0F0BD0826012542E763
:100B5000D27F002A07D02B000096A16A206A0EAA35
:100B6000174DA8475BE7226AD8B20D4B0B92984706
:100B7000009601002B000EAA0B98F1E7E17E0029F8
:100B800000D18BE78021C9040B4387E7F5070000FC
:100B900000040040190F0000B90E0000BD0600005F
:100BA0003D0F0000FD05000000200041010700008E
:100BB000F10F000029080000250C0000140100209E
:100BC00025060000F7B5050003680E0001930B4BE6
:100BD00017009847EC8D0A4BA4B2002C02D098471E
:100BE0000520FEBDEF8598470523AE62019A333597
:100BF0002B70043B93752000F3E7C04615010000FD
:100C00004901000010B51723002A06D0C479053326
:100C1000002C02D0024B98470300180010BDC046BC
:100C2000C50B0000F8B5584B8000C4582568EB6927
:100C3000002BFCD12B7EAF7D1F40230030331A7870
:100C40005E78012316401F4219D0E28D002A00D1A0
:100C500072E0A26A511C1378A1626179DBB20129AA
:100C600064D09BB2DB05DB0D2B85E38D013B9BB292
:100C7000E385002B03D101332B750133AB750223C0
:100C80001F4209D02B752300002233331A70F3075B
:100C900002D52000E368984704231F4227D0A28D85
:100CA000002A00D16DE06B8BDBB21A0746D43F22DD
:100CB000134045D002221A2113420FD104221E21D3
:100CC00013420BD101221321134207D110224221DA
:100CD000134203D12022134204D041212300323396
:100CE00019706A83730702D520006369984710233F
:100CF0001F4206D02B752B761E4202D02000E369DE
:100D0000984720231F4206D02B752B76330702D538
:100D10002000A369984708231F4206D02B752B7625
:100D2000B30602D5236A20009847F8BD51780232F5
:100D300009020B43A26295E72B75A0E73722B7E7BC
:100D40002B8D616ADB05DB0DDAB20A70626A511C19
:100D500061626179012904D11B0A5370636A01330E
:100D60006362A38D013B9BB2A385002BBFD10422FC
:100D70002A75220032321370B307B8D520002369D8
:100D8000B4E72B75B3E7C046140100208023034964
:100D90005B00CA681A42FCD07047C046000C004095
:100DA00070B5082806D800F0D3FC080505303013CC
:100DB0000B1628000024200070BD164B1C69FAE7B2
:100DC000154B1C7D2407A40F601C144C4443F2E710
:100DD000104B5C69EFE70F4D00242B689B07EAD5A9
:100DE0000F4B984724222B681340042B10D120006E
:100DF0000C4B9847AC68A4B2E8E70B4B00241B7877
:100E00009B07D8D5034BDC68D5E780242402D2E7C2
:100E1000064CD0E7A4000020000C004000093D0073
:100E20008D0D00003D0F0000280C0040006CDC021E
:100E300004228240044B05485B6818401040431E62
:100E40009841C0B27047C04600180040FC0700003F
:100E5000F8B504002000124B98470028FAD1114F32
:100E60000834A400104B9847E059104B0007000FBE
:100E70009847E659E459F6040D4BF60F0500240C8B
:100E80009847002E08D1012C04D928002100094BD5
:100E9000984705002800F8BD0134E540FAE7C04650
:100EA000310E00000018004015010000A10D0000E7
:100EB000490100006517000010B50400074B984772
:100EC000074BA000C11840230800CA6F1A43CA6725
:100ED000C26F1A42FCD0034B984710BD15010000A9
:100EE000041800404901000010B50400074B984762
:100EF000074BA000C11840230800CA6F9A43CA6775
:100F0000C26F1A42FCD1034B984710BD1501000077
:100F1000041800404901000070B50D00054B0400A5
:100F200098470F222B7820341340034AA400A35083
:100F300070BDC046E90E00000018004010B5040066
:100F4000064B98472034064BA400E458054B240771
:100F5000240F98472000044B984710BD150100004E
:100F60000018004049010000510E0000D37830B550
:100F7000002B35D11478802C03D0802324065B020B
:100F8000234302255478AC4306D19478002C24D115
:100F90008024A402234341605478013C012C01D8F1
:100FA000124C2340A0248DB2E4052C431C438462E0
:100FB000D0240D0C24062C431C438462D478002CCE
:100FC0000AD15B0303D59378012B0CD1816153784F
:100FD000013B012B00D8816030BDC024E402D9E779
:100FE00041600023DEE74161F1E7C046FFFFFBFF00
:100FF00010B503000A004409C1090020814202D152
:101000000449E00140181F210B401E399940024B52
:10101000984710BD002800406D0F0000931C9B00F6
:101020001950037E022A04D10E32134303760020A6
:101030007047032A01D11D32F7E7012191400B438C
:10104000F4E7000070B50126144B8000C4582368F3
:10105000227E657E9B7A15401D40354204D0A368F0
:101060002000984723689E720226354204D0E36828
:101070002000984723689E721026354204D02369C9
:101080002000984723689E722026354204D0636969
:101090002000984723689E7270BDC0462C01002036
:1010A00010B50020014B984710BDC0464510000008
:1010B00010B50120014B984710BDC04645100000F7
:1010C00010B50220014B984710BDC04645100000E6
:1010D00000B51723042809D80D4B00F039FB03098C
:1010E0000D1115005A69114359610023180000BD04
:1010F0009A6911439961F8E7DA691143D961F4E714
:101100001A6A11431962F0E75A6A11435962ECE70F
:10111000000400407FB50C4B0100180001AA70C804
:1011200070C2019A91420AD05A68914209D09B68D4
:1011300000208B4201D10230C0B204B070BD00204B
:10114000FAE70120F8E7C04628340000F0B5924BDA
:1011500005008DB008000E00140098471B2302AA5A
:1011600013725372023393728C4B01900C3306AAA4
:1011700083CB83C283CB83C20023AB60EB602B6144
:101180006B612B766B76019B9A00854BD5502300C3
:101190002E6034331B78AB76E378082B04D1019AA8
:1011A0001720D20700D5E3E001222B713368052018
:1011B000134200D0DCE00221F37A17300B4200D05A
:1011C000D6E033680B4000D0D2E0217C002908D063
:1011D00005A9CB70237E207D0B70724B8A704A70FC
:1011E0009847237F002B0ED00022012305A9CA7047
:1011F00024328B70A2184B701F33E31812781878C2
:10120000684B0A7098471020019A02A9D200091869
:1012100088581021019B02AA5F007B1C9B0052187A
:10122000D158C0B2604B9847E378082B10D1019B8E
:10123000012B0DDC1021FB1C02AA02375218BF0043
:10124000D05902AA9B005218D158C0B2564B9847A9
:101250000820237803A9019A0B7002AB1B189F5C2E
:10126000524B38009847524B38009847E279E37860
:101270001343A2881343627A002A02D080225202CA
:101280001343A27A002A02D0802292021343E27A08
:10129000002A02D0802252031343227B002A02D06C
:1012A0008022920313436278A1789201C9010A4314
:1012B000296813430A69002AFCD133602A6813693C
:1012C000002BFCD1A3793373637B5A1E9341A27B1D
:1012D0009B00002A01D00122134329680A69002AD1
:1012E000FCD1FF323271002B04D029680A69002A30
:1012F000FCD17371237A73732B681A69002AFCD1AD
:101300002A79042A16D0082A34D01720002A2FD18F
:101310001A69002AFCD1238DB3822A681369002B35
:10132000FCD1638DB3832B6818690028FCD1A38D91
:10133000F3831DE01A69002AFCD1230028331B78AF
:1013400033752A681369002BFCD1230029331B78DD
:10135000F3762A681369002BFCD123002A331B780B
:1013600033772B6818690028FCD12B3423787377E6
:101370000DB0F0BD1A69002AFCD1A36A73612A6816
:101380001369002BFCD1E36AF3612B68186900280C
:10139000FCD1236B3362EBE7151100002834000009
:1013A0002C010020F10F0000D1100000190F0000E7
:1013B000B90E0000FEE700001148124970B58842DE
:1013C00004D00023104CCA18A24213D300210F4BA3
:1013D0000F4A934212D3FF210E4B0F4A8B43936067
:1013E00080230E4A51680B4353600D4B98470D4BB9
:1013F0009847FEE7C55804331560E4E702C3E8E701
:101400005035000000000020680000206800002027
:10141000B00100200000000000ED00E000400041AD
:10142000312B000071140000054B020019680029DF
:1014300001D104491960186882181A607047C046C3
:10144000BC000020B0210020074B1B88322B03D0AA
:101450000133054A138070470122044B1A700022A1
:10146000014B1A80F7E7C046C0000020C2000020F0
:10147000F0B5ABB001228D4B1A70BFF35F8F62B62F
:101480001CAA002313709371D3715370937013725D
:1014900053729372D37213739373537313745361B0
:1014A00093611377136253621385538593853433A5
:1014B0000021D154303BD370E023DB0093806421C2
:1014C0002923D1547A4C7B4920007B4B98472368D1
:1014D0001A69002AFCD11A6802210A431A60744C66
:1014E000002276492000764B98472068754B984734
:1014F000754B1A5C1F231340012632009A40734B30
:101500001A60637E01221343637623685E721BA90F
:1015100000250D708D704D7007206D4B984710ACF5
:1015200020006C4B9847257005236370A670E5700A
:1015300002332371C0235B01E380674D22006749BA
:101540002800674B98472B681A8C92B2002AFBD16F
:1015500007321A719A711A7802210A431A705E4B87
:101560001A68138C9BB2002BFBD18023DB05009300
:1015700000230193FF2269460A8100228B72CB72FD
:10158000962189010891012424216846445401319F
:10159000445401314354013143540A9305314354B7
:1015A000013143540C930D9305930382C376027665
:1015B00002774276132383764277C4239B030393F7
:1015C000484B0E93484B0F93484E6A4648493000AB
:1015D000484B984735682800474B98471F231840C9
:1015E00084403A4B1C603368DA69002AFCD12B68CE
:1015F000023213432B60384C404E23E0CB073FD4DC
:101600003F4B1B883F48584331003F4B98473F4B67
:1016100098473F4A3F4B404FB847404B984782B2AC
:101620003F4B1A803F4F40493800404B98470122BA
:101630003F4B1A70133239002C483E4B984700221A
:101640003D4B1A702268138C9BB2002BFBD1137E8A
:1016500002210B431376138C9BB2002BFBD1364B2C
:101660001B78002BEBD09379DBB20121194058078E
:1016700001D5022001439B07C0D504231943BDE7D0
:10168000918C1F4B1980012393719179C9B20B4042
:10169000480701D502200343890701D504210B43E4
:1016A0005B07ADD502239371AAE7C0460000002076
:1016B00084010020002400424D1100004914000064
:1016C0001D100000151100005434000000E100E07E
:1016D000E1040000B9010000A4010020000C004357
:1016E000F901000002001800020019003801002072
:1016F000000C0042ED08000061080000FF0F000030
:1017000082010020E40C000079180000F527000099
:1017100022FDF675E09CD53FF91A0000BD1A0000C5
:10172000800100206C0100204C340000992E000044
:10173000A0010020050C0000C200002002B4714688
:1017400049084900095649008E4402BC7047C0460A
:1017500002B4714649084900095C49008E4402BC44
:101760007047C046002243088B4274D303098B4262
:101770005FD3030A8B4244D3030B8B4228D3030C61
:101780008B420DD3FF22090212BA030C8B4202D303
:101790001212090265D0030B8B4219D300E0090A2B
:1017A000C30B8B4201D3CB03C01A5241830B8B4234
:1017B00001D38B03C01A5241430B8B4201D34B031D
:1017C000C01A5241030B8B4201D30B03C01A524182
:1017D000C30A8B4201D3CB02C01A5241830A8B4207
:1017E00001D38B02C01A5241430A8B4201D34B02F0
:1017F000C01A5241030A8B4201D30B02C01A524154
:10180000CDD2C3098B4201D3CB01C01A5241830907
:101810008B4201D38B01C01A524143098B4201D341
:101820004B01C01A524103098B4201D30B01C01A6C
:101830005241C3088B4201D3CB00C01A52418308E6
:101840008B4201D38B00C01A524143088B4201D313
:101850004B00C01A5241411A00D201465241104673
:101860007047FFE701B5002000F0F0F802BDC04668
:101870000029F7D076E7704703460B437FD4002258
:1018800043088B4274D303098B425FD3030A8B4214
:1018900044D3030B8B4228D3030C8B420DD3FF227E
:1018A000090212BA030C8B4202D31212090265D04C
:1018B000030B8B4219D300E0090AC30B8B4201D3FF
:1018C000CB03C01A5241830B8B4201D38B03C01A46
:1018D0005241430B8B4201D34B03C01A5241030BBD
:1018E0008B4201D30B03C01A5241C30A8B4201D36E
:1018F000CB02C01A5241830A8B4201D38B02C01A19
:101900005241430A8B4201D34B02C01A5241030A8F
:101910008B4201D30B02C01A5241CDD2C3098B4274
:1019200001D3CB01C01A524183098B4201D38B01F1
:10193000C01A524143098B4201D34B01C01A524194
:1019400003098B4201D30B01C01A5241C3088B42D9
:1019500001D3CB00C01A524183088B4201D38B00C4
:10196000C01A524143088B4201D34B00C01A524166
:10197000411A00D201465241104670475DE0CA0F3D
:1019800000D04942031000D34042534000229C46FD
:1019900003098B422DD3030A8B4212D3FC22890107
:1019A00012BA030A8B420CD3890192118B4208D3DD
:1019B000890192118B4204D389013AD0921100E03F
:1019C0008909C3098B4201D3CB01C01A5241830953
:1019D0008B4201D38B01C01A524143098B4201D380
:1019E0004B01C01A524103098B4201D30B01C01AAB
:1019F0005241C3088B4201D3CB00C01A5241830825
:101A00008B4201D38B00C01A5241D9D243088B427A
:101A100001D34B00C01A5241411A00D2014663461D
:101A200052415B10104601D34042002B00D5494281
:101A3000704763465B1000D3404201B5002000F0C0
:101A400005F802BD0029F8D016E770477047C04678
:101A50009140031C90409C46203A934019435242C7
:101A60006346D34019437047F0B5CE464746150448
:101A70002D0C2E0080B50704140C3F0C9946030C66
:101A80007E435D43674363437F19340CE4199C46EE
:101A9000A54203D980235B029846C4444B46514378
:101AA00043433604360C250C24046544A419591804
:101AB000491920000CBC90469946F0BD70B5002233
:101AC0000C4B04000D0000F00BFF002804D1200097
:101AD000290000F05BFE70BD064B002220002900AB
:101AE00000F03EFB00F052FE80231B069C46604443
:101AF000F1E7C0460000E041F0B557464546DE46F6
:101B00004E46E0B54C000E0387B0834692461D005A
:101B10008046360B640DCF0F002C4FD06F4B9C428C
:101B200035D08023420F1B04F600134333439946FC
:101B3000C30098466A4B00269C46002364440393E6
:101B40002B031B0B9B466B00ED0F50465B0D019565
:101B50005ED0624A934253D05A46D1008022400F51
:101B6000120402430A4393465246D1005C4A94460B
:101B7000002263443800684084460290E41A164309
:101B80000F2E00D9B4E0574BB6009B599F46030077
:101B9000334399466CD100239846023308260393B9
:101BA000CEE7CB464146039A0197022A65D1019BB5
:101BB0004A4C9C460023002298466BE003003343C6
:101BC00099464ED0002E00D1BCE1300000F092FECC
:101BD00003000B3B1C2B00DDACE11D22D31A5A463F
:101BE0000100DA4008398E401300334399465B46C2
:101BF0008B40984600233C4C0026241A03939FE711
:101C000051465A46114329D1002293460232B1E788
:101C1000594601431ED05B46002B00D19EE1584639
:101C200000F068FE03000B3B1C2B00DD8FE102007F
:101C30005946083A91408B461D21CB1A5146D9404E
:101C40000B0059460B4351469B469140264B0022C0
:101C50001B1A8FE7002301229B468BE75146032284
:101C600088E700239846013304260024039367E79E
:101C70000323B14603930C2662E7032A00D15CE2FA
:101C8000019B012A00D0E4E113409C46002300247C
:101C90000022984600211203130B0A0D12051A4365
:101CA0002305124C40462240134362465B00D20794
:101CB0005B081343190007B03CBC90469946A24606
:101CC000AB46F0BD002380229C4612039846034C8D
:101CD000E0E70023014C00229846DBE7FF07000005
:101CE00001FCFFFF583400000DFCFFFFFFFF0F80D9
:101CF000D94500D939E100D134E1002346464D46AB
:101D00009A46013C5B460A0E1B021A430B02170C53
:101D1000039313041B0C3900280090460193FFF72E
:101D200021FD0200019B83465A4328003900914659
:101D3000FFF79EFD350C09040D43A9450DD95B46FF
:101D40004544013BA84500D93AE1A94500D837E10F
:101D500002235B429C464544E3444B46EB1A390060
:101D600018000493FFF7FEFC019B05004343390074
:101D700004989946FFF77CFD330409041B0C0B43C0
:101D8000994509D943446A1E984500D91AE19945F5
:101D900000D817E1023D43444A469B1A5A461204B2
:101DA0002A4303999346100C0A0C914609045A469B
:101DB000090C4E460D001204120C45430591514387
:101DC0007243704352190E0CB218954203D9802504
:101DD0006D02AC466044150C09041204090C281865
:101DE0005218834200D2CEE000D1C8E01D1A5346FB
:101DF0009E1AB24592415242AB1A9A46984500D17A
:101E000017E139001800FFF7ADFC019B05004343C3
:101E1000390050460493FFF72BFD04980B04310C56
:101E20001943884209D941446B1E884500D907E10E
:101E3000884200D804E1023D4144049BCB1A1800BB
:101E400039000493FFF78EFC019B8246434339001F
:101E500004980193FFF70CFD01980B043104090C61
:101E6000194388420DD953464144013B884500D966
:101E7000E8E0884200D8E5E002235B429C4641440A
:101E8000E244019B2D04CE1A51462943059D4F463D
:101E90002A000B04080C1B0C5A4345437B43784330
:101EA0005B19170CFB189D4203D980256D02AC46C7
:101EB00060441D0C12041B04120C28189B18864247
:101EC00000D293E000D18EE001231943A04BE31828
:101ED000002B00DC99E04A0700D09EE05A46D20170
:101EE00006D55A469B4B1A4080239346DB00E318E5
:101EF000994A934268DD0123029A984C1A400023C4
:101F0000944698460022C5E680224B4612031342AF
:101F10000AD05B46134206D11A431203120BAC4699
:101F200088468E4CB6E64B461A431203120BBC464B
:101F30008A4CAFE603005A46283B9A40002391465C
:101F4000984657E6584600F0D5FC203040E603009E
:101F50005246283B9A400021934677E600F0CAFC9F
:101F600020305FE6884500D2C7E64B46DE075D08B5
:101F700043465B081E434346DB079A46C2E60025FC
:101F8000924500D333E7039E5946B446E244B24536
:101F9000AD416D424544EB180139984507D298424E
:101FA00000D97FE000D1BCE01D1A8B461FE79845A1
:101FB000FAD1039D5545F2D943468B461D1A16E7C3
:101FC0009B46CAE61500E7E65A46C90852070A4387
:101FD0005B0590465C0D5A46012302995202194056
:101FE000120B8C4656E6002B00D16FE746444A1E82
:101FF000B04529D91100864200D065E7039A934283
:1020000000D061E762E7012149420120C21A382A63
:1020100021DD029B03409C4638E60F220A40042A39
:1020200000D15BE70A00111D914292415242934454
:1020300054E7474BE318002BE5DD01225242F2E75B
:102040001D00FAE69A461CE7B04239D86ED011005E
:102050003AE702933AE71F2A3CDC20239B1A0C0044
:102060005846994098404B1E99415B46D440D34016
:10207000204308431A00430709D00F230340042BD1
:1020800005D00100081D88429B415B42D218130213
:102090003AD50123029A01241A4000239446984617
:1020A0000022F7E5022149428C46039DE344AC46F9
:1020B000E244AA45AD416D424544ED182D1A96E61D
:1020C0008A1E03994D008D42894149424144761848
:1020D00003958FE71F204042C31A5846D84003009B
:1020E000202A28D040205D46821A954029434A1E66
:1020F00091411943072300220B4009D00F230022EE
:102100000B400800042BBDD1010053075202120BF3
:10211000C9081943012388460299002419408C46B6
:10212000B8E55245BED88B46002560E6039D9D422A
:10213000C6D3110062E70025D8E780225B46120370
:102140001A43019B1203120B9C468846034CA1E5DF
:10215000FF030000FFFFFFFEFE070000FF07000077
:10216000F0B54646D6464F460C03C0B5CD0F4E00DF
:10217000610A440F0C43C1005800400D84468A4652
:102180000F001903500F490A0143C648760DA846AF
:10219000DB0FD200844500D1D8E001204340AB42A0
:1021A00000D1A6E06046351A002D00DC05E10028CC
:1021B00010D10B00134300D1D7E06B1E002B00D0D1
:1021C0004BE153469F1ABA458041641A4042241A93
:1021D00001261EE0B34B9E4248D080231B041943C6
:1021E000382D00DD19E11F2D00DD4CE120230F000B
:1021F0005B1B10009A409F40E840531E9A41E94003
:10220000074317435346DF1B611ABA45A441644292
:102210000C1B230200D4C5E06402650A002D00D126
:10222000F6E0280000F066FB0300083B1F2B00DDF2
:10223000E9E020223C00D21A9D40D4409F40254333
:102240009E4200DDDBE09E1B731C1F2B00DD0AE1BC
:1022500020223800D21A290097402C009140D84003
:102260007A1E9741DC40002601430F437B0709D0CB
:102270000F233B40042B05D03B1DBB42BF417F4297
:10228000E4191F00230225D5864B01369E4200D15A
:10229000AFE0854B01251C4043466207FF086402FE
:1022A00076051743240B760D1D4000212403230BD4
:1022B0000C0D7E4A24051C431440330523435B0068
:1022C000ED075B082B43380019001CBC904699466B
:1022D000A246F0BD012543466207FF081743E40804
:1022E0001D40704B9E4236D024037605240B760D9C
:1022F000DBE76346F31A002B00DC94E0604600281D
:1023000035D068488642B1D080273F043943382B06
:1023100000DCFDE00A43170000217A1E9741574474
:1023200057458041091944420C1923023AD55D4BA7
:1023300001369E4200D14BE101225B4B1C407B08E1
:1023400017401F43E207174364088FE70800104354
:1023500000D024E721E723003B4300D1B9E18022EC
:10236000120314432403240B9FE72E007EE708008A
:10237000104300D1CAE0581E8446002800D0E7E090
:1023800052445245804164184042241817000126E7
:10239000230207D50226CFE764462C4300D1B3E1E0
:1023A0002C0067467B0700D062E76307FF081F43E6
:1023B00001254346E4081D4093E7002D78D1751CA4
:1023C0006D056D0D012D00DCF2E05046801A82454E
:1023D000BF41651A7F42ED1B8446280200D48CE081
:1023E0005046171ABA4292410C1B5542651B98463B
:1023F00014E70125434600241D40002755E72A4CD9
:10240000F61A2C4032E73D0028388540002717E7B0
:10241000380000F06FFA203006E70A431700002169
:102420007A1E9741EEE6002B00D0E5E0731C9C4637
:102430005B055B0D012B00DC9FE01A4B9C4500D136
:10244000C5E0524452458041641840422418E707D1
:10245000520817436408664608E71248854200D1CF
:1024600085E01D00BCE629001F3EF140202B00D175
:102470007FE04022D31A9D402F437D1EAF410024B0
:102480000F4300268EE72B000F00203BDF40202D5E
:1024900071D040235D1BA9400A43511E8A4100218F
:1024A0001743AFE6FF070000FFFF7FFFFFFF0F802E
:1024B000002E3ED0B34EB44545D0802636046D4242
:1024C0003443382D00DDA8E01F2D00DD1FE120265C
:1024D00027005046761BB740E84007435046B040BF
:1024E000461EB041EC403843171ABA4292410C1BC9
:1024F0005242A41A664698468BE6644667462C43C9
:1025000000D08BE6002500260027EAE61E00ADE697
:102510001F2B60DC2027F81A0F008446874010002C
:10252000D840074360468240501E8241D94017433D
:10253000F5E626005046064305D0ED43002DD3D0E6
:10254000904EB445BDD10C001700664698468DE606
:102550008C4883420BD06346D9E6002D00D096E02C
:102560000800104300D1E2E00C0017009846854EA9
:102570007CE6002580E700218EE7230050460343D8
:10258000002E00D0A8E0002B00D1DEE00B001343AA
:1025900000D16BE6524452458041641840422418F1
:1025A0001700230200D4FDE6774B66461C405DE62B
:1025B000250050460543002ECFD1002D4FD10C00F1
:1025C000144300D1A0E00C00170098464EE6664682
:1025D0000024002785E61F000800203FF840070080
:1025E000202B00D18EE04020C31A99400A43511E8F
:1025F0008A410021174392E6002E14D1260050464E
:10260000064362D0DB43002B5CD18718974292418E
:1026100064185242A418664687E650462043441E7A
:10262000A041002460E7574EB4454ED080263604C2
:102630005B423443382B00DD7FE01F2B00DD8BE055
:10264000202627005046F61AB740D8400743504688
:10265000B040461EB0410743DC40BF18D6E70D002E
:10266000154300D102E65046801A8245BF41651AE3
:102670007F42ED1B8446280200D48DE65046171A8F
:10268000BA4292410C1B5242A41A9846EEE50D0044
:10269000154300D16BE750466707C0080743802009
:1026A000E4080003044207D0CD08054204D12C0001
:1026B0009846D70849070F437B0FE4001C43FF00EF
:1026C000304ED3E52F4EB445B4D10C00170066460A
:1026D000CCE500270024E8E5002B39D00B0013439C
:1026E00000D144E7C008670707438020E4080003DF
:1026F0000442E1D0CB080342DED1D70849070F439B
:102700001C00D9E7002171E700250027E9E52E002C
:102710002700203EF740202D2FD04026751BAC40CF
:1027200050462043441EA04100243843DCE6802468
:1027300000252403134E0027D3E55046204307000D
:10274000781E87410024BF1860E70C0017008DE554
:102750000C0017000B4E89E51E002700203EF740B5
:10276000202B0CD04026F31A9C4050462043441E98
:10277000A04107430024BF1848E70024D0E7002405
:10278000F3E7C046FF070000FFFF7FFF30B5134DA2
:102790000A034B00120B5B0DC90F0024AB4210DD86
:1027A0000F4CA3420FDC80240E4D64032243ED1A2C
:1027B0001F2D0BDD0C48C31ADA405442002900D10A
:1027C0001400200030BD094BCC18FAE7084CE84053
:1027D000A44663449A400243EFE7C046FE0300006C
:1027E0001D0400003304000013040000FFFFFF7FFE
:1027F000EDFBFFFF70B5002830D0C317C4185C4054
:10280000C50F200000F076F8174B184A1B1AD21A91
:102810001F2A18DD164AD21A9440002224035B05B1
:10282000240B5B0D0021100024030A0D240B12055C
:102830002243104C1B05224013435B00ED075B084D
:102840002B43190070BD210091400A000B21081A8A
:10285000C4405B052403240B5B0DE3E70025002344
:1028600000240022DEE7C0461E04000033040000FE
:1028700013040000FFFF0F808446101C62468C4644
:10288000191C634600E0C0461FB500F0EFF80028B1
:1028900001D40021C8421FBD10B500F049F84042E4
:1028A000013010BD10B500F0E1F8002801DB002078
:1028B00010BD012010BDC04610B500F0D7F80028AB
:1028C00001DD002010BD012010BDC04610B500F094
:1028D00069F8002801DC002010BD012010BDC046B1
:1028E00010B500F05FF8002801DA002010BD0120CB
:1028F00010BDC0461C2101231B04984201D3000CCB
:1029000010391B0A984201D3000A08391B09984262
:1029100001D30009043902A2105C40187047C04678
:102920000403020201010101000000000000000098
:10293000F0B54F464646D6465C00C0B51F03DB0FD8
:102940009A46174B0E034D0084468046360B6D0D9C
:10295000C90F91463F0B640D01209D4208D09C4257
:1029600001D0A5420BD01CBC90469946A246F0BDB2
:1029700063463343F7D1AC42F5D13A43F3D101205A
:10298000BE42F0D1C845EED1514507D0002DEAD165
:1029900063461E433000461EB041E4E70020E2E7F4
:1029A000FF070000F0B54546DE4657464E46E0B507
:1029B0001F033D0B2C4F0E034C00AB465D008446BD
:1029C000360B640DC90F90466D0DDB0FBC422AD04B
:1029D000254FBD422DD0002C0FD13043070081463A
:1029E00078427841C0B2002D17D15F463A4314D1E6
:1029F0004B460020002B0AD006E0002D02D158469D
:102A0000024301D0994218D04842012108433CBCFE
:102A100090469946A246AB46F0BD0028F2D0012070
:102A2000013B1843F3E737000743D1D0022040426F
:102A3000EDE75F461743CED0F8E7AC42E4DC03DABB
:102A4000481E01210843E2E75E45DDD806D000209C
:102A50005E45DCD20123481E1843D8E7C445D3D8CD
:102A60000020C445F6D3D2E7FF070000F0B54E467C
:102A70004546DE4657465C00E0B51F03DB0F99462E
:102A80002A4B0E034D00C90F8446360B6D0D8B4645
:102A900090463F0B640D9D4220D0244B9C4222D097
:102AA000002D12D1304343424341DBB2002C1FD0F2
:102AB000002B0CD04B460120013B034318003CBCCB
:102AC00090469946A246AB46F0BD002C16D0CB45A9
:102AD00017D05B46594201230B43EFE73100022335
:102AE0000143EBD1D9E7390002231143E6D1D7E7FF
:102AF0003A43DDD100230028E0D0EAE73A43E6D1AB
:102B0000E7E7A542E5DC05DBBE42E2D807D00023BB
:102B1000BE42D3D25946012301390B43CEE7C44507
:102B2000D7D80023C445F5D3C8E7C046FF07000047
:102B300070B500260C4D0D4C641BA410A64209D1A3
:102B4000002600F0F5FC0A4D0A4C641BA410A642B6
:102B500005D170BDB300EB5898470136EEE7B300DE
:102B6000EB5898470136F2E73C3500003C35000051
:102B70003C35000040350000002310B59A4200D1DA
:102B800010BDCC5CC4540133F8E7F7B515000193D0
:102B90008A680B6900900C00934200DA130022004F
:102BA0002B6043321278002A01D001332B60236856
:102BB0009B0602D52B6802332B60062723681F4033
:102BC00027D0230043331B785A1E93412268920674
:102BD00030D42200019943320098089EB047431C2C
:102BE00025D0062320682A68E16803400025042BCD
:102BF00003D18D1AEB43DB171D40A3682269934272
:102C000001DD9B1AED180027BD4220D1002010E005
:102C10000137E3682A689B1A9F42D2DA2200012317
:102C2000193201990098089EB047431CF0D1012049
:102C30004042FEBD3020E1184331087021005A1C8B
:102C400045310978A218433202331170C1E72200DE
:102C500001231A3201990098089EB047431CE6D020
:102C60000137D1E7F0B58BB006920A0043320793E3
:102C7000059004920A7E0C00109B6E2A00D18FE012
:102C800017D8632A2CD008D8002A00D199E0582AF6
:102C900054D026004236327029E0642A01D0692AD5
:102CA000F7D121681A68080623D5111D1960156827
:102CB00025E0732A00D188E008D86F2A29D0702A2D
:102CC000E7D1202209680A43226003E0752A20D058
:102CD000782ADED122007821453211706C4A30E02A
:102CE0000E001A684236111D1960136833700123F3
:102CF00079E04906D9D5111D19600023D55E002D54
:102D000003DA2D23049A6D421370624B0A27039352
:102D10002FE020681968050603D5081D18600D68A6
:102D200005E04006F9D50D68081D1860ADB2594B95
:102D3000082703936F2A18D00A2716E045310A7036
:102D4000544A03921A682168101D18601568080615
:102D500022D5CB0702D52023194321601027002D4F
:102D600003D1202322689A432260230000224333A8
:102D70001A706368A360002B5CDB04222168914316
:102D80002160002D58D1049E002B64D02600039BA7
:102D900042361B7833705EE04806DAD5ADB2D8E72C
:102DA00009681A68080605D5111D1960136862695B
:102DB0001A6006E04906F7D5111D19601368A28A4A
:102DC0001A800023049E236154E01A68111D1960C3
:102DD000166800216268300000F080F8002801D0F9
:102DE000801B6060636823610023049A137041E0D4
:102DF0002369320006990598079DA847431C43D0D4
:102E0000236800259B070FD4099BE06898423DDAB0
:102E100018003BE022000123193206990598079E0D
:102E2000B047431C30D00135E368099A9B1A9D4294
:102E3000F0DBE9E7002DA9D0049E28003900FEF759
:102E400017FD039B013E5B5C280033703900FEF7E1
:102E500089FC051EF1D1082F09D12368DB0706D5AF
:102E600063682269934202DC3023013E3370049B85
:102E70009B1B2361079B09AA00932100069B0598D1
:102E8000FFF783FE431CB3D1012040420BB0F0BDDD
:102E9000A9340000983400000EB410B59DB002A90A
:102EA000029008610B4882248860486101204042FA
:102EB0001FABC881084804CBA400006801938C8133
:102EC00000F05AF90023029A13701DB010BC08BC20
:102ED00003B01847FFFFFF7F04000020C9B282182B
:102EE000904201D10020704703788B42FBD0013023
:102EF000F6E710B5884202D98B18984208D3002310
:102F00009A4207D0CC5CC4540133F9E78B5C8354FC
:102F1000013AFBD210BD000070B50500002910D0A9
:102F20000C1F2368002B00DAE418280000F03AFA9E
:102F30001D4A1368002B05D163601460280000F05F
:102F400032FA70BDA34209D9216860188342F3D1D7
:102F500018685B6841182160EEE713005A68002A80
:102F600001D0A242F9D919685818A0420BD12068A3
:102F70000918581819608242E0D110685268411847
:102F800019605A60DAE7A04202D90C232B60D5E71A
:102F900021686018824203D110685268411821608C
:102FA00062605C60CAE7C046C4000020032370B5BD
:102FB000CD1C9D43083506000C2D1ED20C25A942C0
:102FC0001DD8300000F0EEF9254A146821000029D0
:102FD00019D1244C2368002B03D1300000F0D0F924
:102FE00020602900300000F0CBF9431C2CD10C23C9
:102FF0003000336000F0D7F903E0002DDFDA0C2356
:103000003360002070BD0B685B1B1AD40B2B03D9F7
:103010000B60CC18256003E08C420ED1636813600E
:10302000300000F0C0F9200007220B30231D904330
:10303000C31AE7D05A42E250E4E74B6863600C00E1
:10304000EEE70C004968C2E70323C41C9C43A0427E
:10305000E0D0211A300000F093F9431CDAD1C6E722
:10306000C4000020C8000020F8B507000D001600BD
:10307000002905D11100FFF799FF04002000F8BDD9
:10308000002A03D1FFF748FF3400F7E700F08CF97E
:103090002C008642F2D931003800FFF787FF041E6A
:1030A000ECD029003200FFF767FD29003800FFF758
:1030B00033FFE3E7F0B58E6885B007000C0003929C
:1030C00001939E4239D890238A89DB001A4234D07A
:1030D0000325096923685B1A0293636902985D43BB
:1030E000EB0F5D19019B6D1001331B18AB4200D92A
:1030F0001D00530532D529003800FFF757FF061E83
:1031000009D10C233B6040230120A2894042134394
:10311000A38105B0F0BD029A2169FFF72DFDA389B7
:10312000144A1A4080231343A381029B2661F61898
:1031300026606561019EED1AA560019BB34200D235
:103140001E00320003992068FFF7D3FEA368002019
:103150009B1BA36023689E192660DAE72A003800CB
:10316000FFF782FF061EE0D121693800FFF7D4FE89
:10317000C7E7C0467FFBFFFFF0B59FB00290059305
:103180008B890F0016001B0611D50B69002B0ED181
:103190004021FFF70BFF38603861002805D10C2370
:1031A000029A013813601FB0F0BD40237B610023F9
:1031B00006AD6B6120336B761033AB763400237829
:1031C000002B47D1A31B04930DD0A31B3200390061
:1031D0000298FFF76FFF431C00D1B5E06A69049BBA
:1031E000944663446B612378002B00D1ACE001224C
:1031F000002352426A6002A95432521801342B60F3
:10320000EB60AB601370AB65584E0522217830003F
:10321000FFF764FE621C002820D12968CB0604D584
:10322000532302AE20309B1918700B0704D553238B
:103230002B2002AE9B19187023782A2B16D0002061
:103240000A21099B2278303A092A55D9002815D03D
:10325000099313E0252BB5D00134B0E70123801B7F
:103260008340296814000B432B60CDE7059B181D94
:103270001B680590002B39DB0993140023782E2B53
:103280000BD16378621C2A2B3ED1059B02341A1D98
:103290001B680592002B34DB0793354E21780322FF
:1032A0003000FFF71BFE002806D04023801B834020
:1032B0002A68013413432B60217806222D48661CAE
:1032C0002976FFF70BFE002846D02B4B002B2FD181
:1032D0002968059B0722C90528D59B189343083305
:1032E00005936B69039A9B186B6167E75B42EB6020
:1032F00002230B432B60C0E74B4301349B18012092
:10330000A0E701235B42C7E7002314000A201A004C
:103310006B6021783039092903D9002BBDD0079281
:10332000BBE74243013452180123F2E70733D5E7E4
:1033300005AB00933A00114B2900029800E000BF52
:103340000390039B0133CCD1BB890B985B0600D45F
:1033500029E70120404226E705AB00933A00074BDE
:1033600029000298FFF77EFCEAE7C0461C35000002
:10337000223500002635000000000000B5300000B6
:10338000002370B5064C050008002360FEF74CF8DA
:10339000431C03D12368002B00D02B6070BDC046B6
:1033A000AC010020704770470B1F1B68181F002BD3
:1033B00001DA0B58C0187047FFFF0000FFFF000044
:1033C000FFFF0000FFFF000006000000FFFF0000FD
:1033D000FFFF0000FFFF0000FFFF0000FFFF0000F5
:1033E000FFFF0000FFFF0000FFFF0000FFFF0000E5
:1033F000FFFF0000FFFF0000FFFF0000FFFF0000D5
:10340000FFFF0000FFFF0000FFFF0000FFFF0000C4
:10341000000000420004004200080042000C00428C
:10342000001000420004004300200042002400423B
:10343000000800430200000000010000020000003C
:1034400000020000030000000400000025640D0AD3
:103450000000000011121500F01C0000D21C00003A
:103460008C1C0000AA1B00008C1C0000C41C000067
:103470008C1C0000AA1B0000D21C0000D21C000003
:10348000C41C0000AA1B0000A21B0000A21B00001D
:10349000A21B0000081F00003031323334353637AC
:1034A00038394142434445460030313233343536B1
:1034B000373839616263646566000000000000000F
:1034C00000000000000000000000000000000000FC
:1034D00000000000000000000000000000000000EC
:1034E00000000000000000000000000000000000DC
:1034F00000000000000000000000000000000000CC
:1035000000000000000000000000000000000000BB
:10351000000000000000000000000000232D302B00
:103520002000686C4C006566674546470000000057
:10353000F8B5C046F8BC08BC9E467047DD000000E8
:10354000F8B5C046F8BC08BC9E467047B500000000
:10355000010000000800002000000000DC34000032
:10356000FC340000BC34000000000000000000003B
:10357000000000000000000000000000000000004B
:10358000000000000000000000000000000000003B
:10359000000000000000000000000000000000002B
:1035A000000000000000000000000000000000001B
:0835B000000000000000000013
:04000003000013B92D
:00000001FF
