:10000000B821002039160000351600003516000012
:1000100000000000000000000000000000000000E0
:100020000000000000000000000000003516000085
:10003000000000000000000035160000351600002A
:100040003516000035160000D105000059050000E6
:100050003516000035160000351600003516000074
:10006000010A0000110A0000210A0000310A000004
:10007000410A0000510A0000351600003516000044
:1000800035160000ED120000FD1200000000000017
:10009000000000000D1300003516000035160000AA
:1000A0000000000035160000000000000000000005
:1000B0000000000010B5064C2378002B07D1054B3B
:1000C000002B02D0044800E000BF0123237010BDC4
:1000D0006800002000000000DC380000084B10B56C
:1000E000002B03D00749084800E000BF0748036819
:1000F000002B00D110BD064B002BFBD09847F9E731
:10010000000000006C000020DC380000DC3800003B
:10011000000000000C4B1B68002B06D1EFF310838E
:10012000002B07D00022094B1A70074A13680133CD
:100130001360704772B6BFF35F8F0022044B1A70D2
:100140000132024B1A70F0E7840000208800002082
:1001500000000020084B1A68013A1A601B68002B47
:1001600009D1064B1B78002B05D00122044B1A70D5
:10017000BFF35F8F62B670478400002088000020C4
:100180000000002010B5002300220370437083702C
:10019000C370002103830362C36106240471C02479
:1001A0006401C480017242728272C27202732A2494
:1001B000025542738273C27303610275063C025595
:1001C000C3840385417510BDF0B5CE4600B598B027
:1001D000050016000160B54A136A08200343136244
:1001E0000B780338DB0703D518B004BC9146F0BD8B
:1001F0002A68138C9BB2002BFBD10B781C209B0729
:10020000F2D473782B71002B04D1A94AD36904214D
:100210000B43D3612F6833786A46137069461E20FA
:10022000A44B98471E20A44B984734795822A349E1
:1002300002A8A34B9847132C0BD9F48858229F4946
:1002400002A89F4B9847132C11D900249C4B994628
:100250001EE0A40002ABE05801A900234B70CB7054
:100260008B7001330B70C0B2964B9847E5E7A40042
:1002700002ABE05801A900234B70CB708B700133A7
:100280000B70C0B28F4B9847DFE70134142C18D0A5
:100290000123A34032691A42F7D05822874902A8A5
:1002A000C847132CF1D8A30002AA985801A900232B
:1002B0004B70CB708B7001330B70C0B2814B984781
:1002C000E3E7737B9B01B27BD2011343DBB23B704C
:1002D000337DDB0172781343DBB2BB70F378342BD0
:1002E00000D933E19B00784AD3589F46042210245A
:1002F00002211AE0717A327A102416E006221024C4
:10030000012112E00822102400210EE000223024F6
:1003100000210AE000222024002106E0002200241F
:10032000002102E0022210240121090170230B4068
:1003300013433B732A68138C9BB2002BFBD1737D54
:1003400017203F2B00D94FE7F27BD2011343DBB2DA
:100350007B732A68138C9BB2002BFBD1B3787B7024
:100360002423F35CDB00327B92001A43F37A1343BD
:10037000B27A5200134323437B812A68138C9BB2C9
:10038000002BFBD1338B002B1FD0102C00D1BFE0F2
:100390006BD9202C00D19DE0302C16D1F27A002AA6
:1003A0000AD0F26980321720FF2A00D91CE7326A8E
:1003B0008032FF2A00D917E71720F269FF2A00DDF3
:1003C00012E7326AFF2A00DD0EE77A8913437B8148
:1003D0002A68138C9BB2002BFBD1B38BFB812A685C
:1003E000138C9BB2002BFBD1338C3B822A68138C7D
:1003F0009BB2002BFBD13379F28813433B812A68EF
:10040000138C9BB2002BFBD12A33F35CFB700723C8
:100410003B711D33F35C002B1BD0F38C2B4A172050
:10042000934200D9E0E67B822A68138C9BB2002BB2
:10043000FBD1328D80231B01D31824499BB2172096
:100440008B4200D9D0E6BA822A68138C9BB2002B6B
:10045000FBD11F4B1B681A02E021C9000A409B0612
:100460005B0F1343BB850020BEE6002CADD1F27AB2
:10047000002A0FD0F269802109018C466244134999
:1004800017208A4200D9AFE6326A62440F498A4295
:1004900000D9A9E60D4A1720F169914200DDA3E6D3
:1004A000316A914200DD9FE68FE7C04600040040BC
:1004B0000014004029110000B9100000FC360000B3
:1004C000E52D00002512000028360000FF0F000077
:1004D00020608000F27A002A0FD0F2698021890022
:1004E0008C4662441A4917208A4200D97CE6326A57
:1004F000624417498A4200D976E6154A1720F16905
:10050000914200DD70E6316A914200DD6CE65CE705
:10051000F27A002A0FD0F269802109028C466244E7
:100520000C4917208A4200D95EE6326A62440949C2
:100530008A4200D958E6074A1720F169914200DD46
:1005400052E6316A914200DD4EE63EE717204BE667
:10055000FF030000FFFF000070B50022104B1A706F
:10056000002310491F25104E0D4C0AE00D4908E0EC
:1005700023780133DBB223700F2B10D800211F2BFF
:10058000F4D9280018400122824048691042EFD077
:100590004A619B009B59002BEAD09847E8E770BD61
:1005A000D000002000240040D400002000B583B01B
:1005B00001AB80221A700A785A704A789A708A7849
:1005C000DA701900014B984703B000BD25120000F6
:1005D000F8B5DE4657464E464546E0B52B4B1B6800
:1005E0009A461E68DB8E5246928E1A409046B28919
:1005F000738913401AB2002A08DBFF271F402AD054
:10060000002401239946FE339B4614E043465B05D4
:1006100007D41F4BB3813CBC90469946A246AB46DB
:10062000F8BD53461B6B9847F3E75B461D40B58109
:100630000134082CEFD023004D46A5402F42F4D0C2
:100640004246224149461142EFD002339B005246B6
:100650009B589847E9E7DA050AD54346DB0503D4FA
:1006600080235B00B381D6E753469B6A9847F7E740
:100670009B05D0D543469B0503D480239B00B381C3
:10068000C9E75346DB6A9847F7E7C04614010020E4
:100690000080FFFFF0B5DE4657464E464546E0B5C2
:1006A00087B08046049116001F000022002300211D
:1006B0008B463F2401202100009601975C4603945D
:1006C0004446059413E02024641A0500E540A8463A
:1006D00014E0009C019D121BAB415C464D462C432F
:1006E000A346039C45462C430394013925D320247B
:1006F00064420C19E7D40500A540A84604008C40CC
:10070000A14692185B4114001D00059E4F463E40D5
:10071000B446049E47463E40B246664657463E4370
:1007200003D00600264332002B00009C019D9D4211
:10073000DBD8CED19442D8D8CBE7039B58461900DA
:1007400007B03CBC90469946A246AB46F0BD10B5FA
:10075000490840230024814202D2180010BD1C0029
:10076000091A631C9BB28842F9D94023FF2CF4D8A4
:1007700014800023F1E70000F0B583B00F001600ED
:1007800008AA117804004C434022BC4202D9100050
:1007900003B0F0BD002B14D1020008000021194C59
:1007A000A04701003A0000230020174CA047002278
:1007B0000123121A8B41120C1B041A4332800022AF
:1007C000E5E70022012BF9D10A00002300210D4C9E
:1007D000A04702000B0000920193380000210A4C50
:1007E000A047050080239B0140229842CFD8790F73
:1007F000F800009A019BA047EA00821AD2B2520385
:100800002A43DBE7D51C00009506000010B582B036
:1008100004000E4B1B78002B07D0002905D10B4B91
:100820005B78834210D01D200CE001A90C701120D0
:10083000074B98471120074B9847044B5C700122E7
:100840001A70002002B010BD0020FBE78C000020D1
:1008500029110000B91000002C4B984226D00AD96B
:100860002B4B98423AD02B4B984241D02A4B98427E
:1008700024D0002070478423DB05984208D0274B02
:100880009842F6D102290DD003290DD00020F1E7BE
:10089000022903D0032903D00020EBE72048E9E731
:1008A0002048E7E72048E5E72048E3E7012903D0AF
:1008B000002927D00020DDE71D48DBE7012907D00C
:1008C000002921D0022905D0032905D00020D1E735
:1008D0001848CFE71848CDE71848CBE7022903D0DE
:1008E000032903D00020C5E71548C3E71548C1E731
:1008F000022903D0032903D00020BBE71248B9E73F
:100900001248B7E71248B5E71248B3E700080042BB
:100910000010004200040043000C004200040042AA
:10092000030006000300070003001E0003001F0071
:10093000030009000300110003001200030013006C
:1009400003000E0003000F0003001800030019004D
:10095000030008000300100030B587B00B4B6A4657
:1009600032CB32C232CB32C2009B83420BD0012346
:100970009A0069465258824206D00133062BF7D1BD
:10098000002007B030BD0023D8B2FAE7543700008A
:1009900070470000F0B50A4B1B78002B0CD1094FB3
:1009A000094E0A4D0024DE515A1914600433182BE5
:1009B000F9D10122024B1A708000024BC150F0BDE8
:1009C0008E000020900000209109000018010020F6
:1009D00000B583B008236A461370013353700133A6
:1009E00093700133D3700133137101335371034B8F
:1009F00098476B46185603B000BDC0465909000021
:100A000010B5024B1B680020984710BD90000020D5
:100A100010B5024B5B680120984710BD9000002084
:100A200010B5024B9B680220984710BD9000002033
:100A300010B5024BDB680320984710BD90000020E2
:100A400010B5024B1B690420984710BD9000002090
:100A500010B5024B5B690520984710BD900000203F
:100A6000F0B5DE4657464E464546E0B591B0050026
:100A70000C00160029600800C44B984702000528A6
:100A80000DD007001237030021680520C90709D5DA
:100A900011B03CBC90469946A246AB46F0BD182723
:100AA0000123F1E7216817308907F1D4052A49D0DD
:100AB000B749C86901229A4013000343CB610FA9CB
:100AC0002D239846F35C0B70FFB23800B14B98476A
:100AD0003800B14B98474346F05C0021AF4B984734
:100AE000F37A6B712423F35CAB712523F35CEB7118
:100AF000F37E2B72337F6B722B6898461800A34BE2
:100B00009847052826D0123000220E2306A98C46CD
:100B100063441A80328A02928023DB019A4200D118
:100B2000A7E019D9C023DB01029A9A4200D19BE0C9
:100B300080231B029A4200D023E103230693002363
:100B4000079312E09249086A043A9A40130003435B
:100B50000B62B4E71820D7E780239B019A4200D0AC
:100B60000FE1102306930F3B079333680593F36857
:100B70009B4673690393337E04932623F35C9A4662
:100B800073689946002B00D19BE080235B05994553
:100B900004D12723F35C002B00D180E0737E002B6F
:100BA00002D0B37E424693730E2306AA9446634452
:100BB0001B8842469381059B5A461343039A13436D
:100BC0004A461343029F1F43049B1B021F43534685
:100BD0005B071F432723F35C002B01D104331F4322
:100BE000737E9B02327F52021343727F12021343C1
:100BF0002422B25C520413432522B25C1204134334
:100C0000B17AF27A114319433389FF2B7DD08022C8
:100C10005204174319432C23F35C002B03D1604B80
:100C20009B789B0701D580231F432A68D369002B3B
:100C3000FCD1434659602A68D369002BFCD1434656
:100C40001F600EAB80221A7000225A70DA709A7000
:100C5000336B0A93736B0B93B36B0C93F36B02932D
:100C60000D9300270AAE5EE008230693073B079327
:100C70007BE733680593F3689B4673690393337E80
:100C800004932623F35C9A4673689946002B14D08C
:100C900080235B05994500D17BE7002020E0336A83
:100CA0001F00C0B23F4B984701000E2206AB9C4686
:100CB000624438003C4B984712E008230693002317
:100CC00007932723F35C002B0ED0069B0093079B12
:100CD0000E2206A98C466244B16A306A334FB84787
:100CE000002800D0D4E659E7336A1F00C0B22D4B6C
:100CF00098470100069B0093079B0E2206A8844696
:100D000062443800294FB847EAE7F37E002B82D0CF
:100D10008023DB041F437EE72000254B984707E034
:100D20000137042F0DD0F9B2BB0098590028F3D039
:100D3000431CF5D00EA90870000CC0B21D4B98479B
:100D4000EEE70023EB602B616B61AB61EB612B6223
:100D5000AB626B620022EB85AB853033EA54013322
:100D6000EA540133EA540133EA542868074B9847A0
:100D700004001149114B9847A400114BE550002085
:100D800086E61023069300230793EEE65909000038
:100D90000004004029110000B91000000D080000F7
:100DA000002000414D1100004F07000079070000AE
:100DB0005908000025120000210E000095090000CE
:100DC00018010020F8B506000C00150007680A4B52
:100DD0009847F38D9BB2002B03D0084B9847052012
:100DE000F8BDF585054B9847B46205223323F254CC
:100DF000323BBB750020F3E71501000055010000F0
:100E000010B51723002A01D1180010BDC47905338D
:100E1000002CF9D0014B98470300F5E7C50D000001
:100E2000F8B58000624BC5582C68E369002BFCD1F3
:100E3000237EA67D1E403023EB5C3122AF5C1F4039
:100E4000F30722D5EB8D9BB2002B1CD0AA6A137836
:100E5000DBB2511CA962697901290ED09BB2DB0576
:100E6000DB0D2385EB8D013B9BB2EB85002B0CD179
:100E7000013323750133A37507E0517809020B4351
:100E80000232AA62EBE701232375B30706D50223DA
:100E9000237500223133EA54FB071AD4730765D552
:100EA000AB8D9BB2002B5FD0638BDBB21A0714D4DF
:100EB0003F221340002B34D09A0711D51A22322337
:100EC000EA54303B63837B0750D528006B69984711
:100ED0004CE02800EB689847E0E737221340E9E749
:100EE0005A0705D51E223223EA542E3B6383EAE7D4
:100EF000DA0705D513223223EA54313B6383E2E754
:100F0000DA0605D542223223EA54223B6383DAE72C
:100F100020221A42D7D021323223EA54123B638373
:100F2000D1E7238DDB05DB0DDAB2696A0A706A6AE4
:100F3000511C69626979012910D0AB8D013B9BB2CC
:100F4000AB85002B12D10433237500222E33EA54D3
:100F5000BB070BD528002B69984707E01B0A537085
:100F60006B6A01336B62E8E704232375F30604D54B
:100F7000102323752376FB060ED4B30604D5202355
:100F8000237523763B070BD4330704D50823237539
:100F90002376BB0608D4F8BD2800EB699847ECE738
:100FA0002800AB699847EFE72B6A28009847F2E7DB
:100FB0001801002010B5082803D880001D4B1B58CD
:100FC0009F46002034E01C4B186931E01B4B187D14
:100FD0000007800F431C1A48584329E0164B5869F4
:100FE00026E0154B1B6800209B0721D51349802262
:100FF0005200CB681342FCD00F4B1A6824231340D5
:10100000042B01D00F4813E000200F4B98470A4BE8
:101010009B681B041B0C58430AE02823074AD35C37
:1010200000209B0704D5044BD86801E08020000213
:1010300010BDC0466C370000A8000020000C004026
:1010400000093D00006CDC024D110000F8B5040001
:10105000042282401248134943680B401A42FBD1D4
:10106000114B98470E4F0834A400E0590007000FB9
:101070000E4B98470600E559ED04ED0FE459240C9A
:101080000B4B9847002D07D1012C07D921003000C8
:10109000084B9847060001E00134E6403000F8BDF7
:1010A00000180040FC07000015010000B50F00000B
:1010B00055010000E919000010B50400094B9847DC
:1010C000A000094B9C4660448022835840210B437A
:1010D00083504031403A43581A42FCD0034B984762
:1010E00010BDC04615010000001800405501000069
:1010F00010B50400094B9847A000094B9C4660447A
:101100008022835840218B4383504031403A4358DA
:101110001A42FCD1034B984710BDC0461501000090
:10112000001800405501000070B504000D00054B8B
:1011300098472A780F2313402034A400024AA35072
:1011400070BDC046F11000000018004010B504004A
:10115000064B98472034A400054BE4582407240F7D
:10116000044B98472000044B984710BD1501000020
:1011700000180040550100004D10000030B5D37834
:10118000002B35D11378802B29D01B0680246402D4
:10119000234354780225AC4306D19478002C20D107
:1011A0008024A402234341605478013C012C1CD9C3
:1011B0000D042D0CA024E4052C431C4384620D0C6B
:1011C000D02424062C431C438462D478002C22D1E2
:1011D0005B031CD59378012B1ED0416117E00023DF
:1011E000D7E7C024E4022343DDE70D4C2340DFE7CB
:1011F00041600C04240CA023DB05234383620C0C08
:10120000D0231B0623438362D378002B03D153786A
:10121000013B012B02D930BD8161F8E78160FAE71B
:10122000FFFFFBFF10B50A00C1090023002904D10C
:101230004309DB0105498C4663441F2420400121FA
:1012400081401800024B984710BDC046002800405E
:101250007D110000931C9B001950022A09D0032A1B
:101260000CD0012393401A00037E13430376002021
:101270007047037E102213430376F8E7037E202293
:1012800013430376F3E7000070B58000164BC45893
:1012900023689D7A227E637E13401D40EB0706D4AF
:1012A000AB070BD4EB0610D4AB0615D470BD2000F1
:1012B000A3689847012322689372F1E72000E3684E
:1012C0009847022322689372ECE72000236998472D
:1012D000102322689372E7E7200063699847236828
:1012E00020229A72E2E7C0463001002010B50020AB
:1012F000014B984710BDC0468912000010B501206F
:10130000014B984710BDC0468912000010B502205D
:10131000014B984710BDC0468912000030B585B01A
:1013200001AA0B4B32CB32C2019B98420DD0029BDB
:10133000984208D00023039A824202D0180005B0D8
:1013400030BD023302E0012300E00023DBB2F5E709
:10135000B8370000F0B5C64600B58AB004000D00ED
:1013600016000800AA4B9847804609AB1B221A704A
:101370005A7002329A7003A9A64B0C330A0083CB31
:1013800083C283CB83C20023A360E36023616361D4
:101390002376637643469A009F4BD45025603423CE
:1013A000F35CA376F378082B08D023712B68052013
:1013B000DB0708D50AB004BC9046F0BD17204246B2
:1013C000D207F7D4F1E7EB7A17309B07F2D42B68FA
:1013D0009B07EFD4337C002B12D1337F002B1BD122
:1013E00043465A0003A9531C9B0058584346DB0050
:1013F0005B58D9B2042923D88B008849CB589F4623
:1014000002A901238B700022CA70327E0A704B70D1
:10141000307D834B9847E0E702A901238B700022BF
:10142000CA702432B21812780A704B701F33F31846
:1014300018787B4B9847D3E77A494B691843486142
:10144000F378082B00D185E001A933780B7009AB44
:1014500042469F5C3800744B98473800734B98475E
:10146000F378F2791343B2881343727A002A02D0D8
:10147000802252021343B27A002A02D080229202C2
:101480001343F27A002A02D0802252031343327BA4
:10149000002A02D080229203134371788901B27826
:1014A000D2011143194322681369002BFCD1296032
:1014B00022681369002BFCD1B3792B73717B4B1E0F
:1014C00099418900B37B002B01D001231943226885
:1014D0001369002BFCD1FF332B71002904D0226843
:1014E0001369002BFCD16971337A6B73226813691D
:1014F000002BFCD12379042B59D0082B74D0172052
:10150000002B00D056E71369002BFCD1338DAB8242
:1015100022681369002BFCD1738DAB832268136999
:10152000002BFCD1B38DEB83002043E73D498B6951
:101530001843886184E73B49CB691843C8617FE75A
:1015400038490B6A184308627AE7364B596A0843F0
:10155000586275E743460133022B00DD74E703ABA5
:10156000D11C8900C95802329200D358DAB2042A39
:1015700000D969E793002E4AD3589F46294A5369F8
:101580001943516160E7274A9369194391615BE709
:10159000244AD3691943D16156E7224A136A194391
:1015A000116251E71F4B5A6A114359624CE71369A4
:1015B000002BFCD12833F35C2B7522681369002BB8
:1015C000FCD12933F35CEB7622681369002BFCD144
:1015D0002A33F35C2B7722681369002BFCD12B3361
:1015E000F35C6B770020E5E61369002BFCD1B36A4E
:1015F0006B6122681369002BFCD1F36AEB612268EE
:101600001369002BFCD1336B2B620020D2E6C0465D
:101610001D130000B8370000300100209037000093
:10162000251200000004004029110000B91000003C
:10163000A4370000FEE7000010B51A4A1A4B9A4280
:1016400011D01A00194B9A420DD2194A03339B1A32
:101650009B0801339B000022134812498C58845088
:1016600004329A42FAD1134A134B9A420AD2D34314
:1016700011495B1803218B4304339B18002102C2DC
:101680009342FCD10D4AFF210D4B8B4393600D4AD1
:1016900053687F390B4353600B4B98470B4B98476C
:1016A000FEE7C046DC380000000000206800002093
:1016B0000400002068000020B401002000ED00E0DC
:1016C00000000000004000419D2D00001D1700009B
:1016D0000300064A1268002A04D0044A1068C3189E
:1016E000136070470249014A1160F6E7C00000200C
:1016F000B8210020074B1B88642B03D00133054A17
:10170000138070470122044B1A700022014B1A808B
:10171000F7E7C046C4000020C6000020F0B5ABB01B
:1017200001228D4B1A70BFF35F8F62B61CAA002393
:1017300013709371D37153709370137253729372C9
:10174000D372137393735373137453619361137749
:101750001362536213855385938534330021D1542A
:10176000303BD370E023DB00938064212923D154E4
:101770007A4C7B4920007B4B984723681A69002AE2
:10178000FCD11A6802210A431A60744C002276497F
:101790002000764B98472068754B9847754B1A5C2C
:1017A0001F231340012632009A40734B1A60637E58
:1017B00001221343637623685E721BA900250D7016
:1017C0008D704D7007206D4B984710AC20006C4B0E
:1017D0009847257005236370A670E5700233237166
:1017E000C0235B01E380674D220067492800674BF7
:1017F00098472B681A8C92B2002AFBD107321A71D3
:101800009A711A7802210A431A705E4B1A68138C77
:101810009BB2002BFBD18023DB05009300230193B7
:10182000FF2269460A8100228B72CB7296218901C0
:101830000891012424216846445401314454013163
:101840004354013143540A93053143540131435405
:101850000C930D9305930382C3760276027742764A
:10186000132383764277C4239B030393484B0E9341
:10187000484B0F93484E6A4648493000484B9847BA
:1018800035682800474B98471F23184084403A4B3F
:101890001C603368DA69002AFCD12B6802321343DA
:1018A0002B60384C404E23E0CB073FD43F4B1B8886
:1018B0003F48584331003F4B98473F4B98473F4A7A
:1018C0003F4B404FB847404B984782B23F4B1A803E
:1018D0003F4F40493800404B984701223F4B1A7018
:1018E000133239002C483E4B984700223D4B1A706A
:1018F0002268138C9BB2002BFBD1137E02210B4379
:101900001376138C9BB2002BFBD1364B1B78002B2C
:10191000EBD09379DBB201211940580701D50220A1
:1019200001439B07C0D504231943BDE7918C1F4B8E
:101930001980012393719179C9B20B40480701D5F1
:1019400002200343890701D504210B435B07ADD572
:1019500002239371AAE7C0460000002088010020FE
:101960000024004255130000F51600005512000037
:101970001D130000E437000000E100E0AD050000A9
:1019800085010000A8010020000C0043C9010000EF
:1019900002001800020019003C010020000C004267
:1019A000610A0000D1090000FF0F0000860100203D
:1019B000E40C0000FD1A0000612A000022FDF6750B
:1019C000E09CD53F651D0000291D0000840100201A
:1019D00070010020DC370000F92D0000A401002078
:1019E000010E0000C6000020002243088B4274D381
:1019F00003098B425FD3030A8B4244D3030B8B4210
:101A000028D3030C8B420DD3FF22090212BA030C18
:101A10008B4202D31212090265D0030B8B4219D3F9
:101A200000E0090AC30B8B4201D3CB03C01A524119
:101A3000830B8B4201D38B03C01A5241430B8B4261
:101A400001D34B03C01A5241030B8B4201D30B034A
:101A5000C01A5241C30A8B4201D3CB02C01A524171
:101A6000830A8B4201D38B02C01A5241430A8B4234
:101A700001D34B02C01A5241030A8B4201D30B021D
:101A8000C01A5241CDD2C3098B4201D3CB01C01A37
:101A9000524183098B4201D38B01C01A5241430941
:101AA0008B4201D34B01C01A524103098B4201D32F
:101AB0000B01C01A5241C3088B4201D3CB00C01A9C
:101AC000524183088B4201D38B00C01A5241430814
:101AD0008B4201D34B00C01A5241411A00D2014639
:101AE000524110467047FFE701B5002000F0F0F8C2
:101AF00002BDC0460029F7D076E7704703460B4386
:101B00007FD4002243088B4274D303098B425FD3F6
:101B1000030A8B4244D3030B8B4228D3030C8B4222
:101B20000DD3FF22090212BA030C8B4202D3121208
:101B3000090265D0030B8B4219D300E0090AC30BDD
:101B40008B4201D3CB03C01A5241830B8B4201D38A
:101B50008B03C01A5241430B8B4201D34B03C01A73
:101B60005241030B8B4201D30B03C01A5241C30AEB
:101B70008B4201D3CB02C01A5241830A8B4201D35C
:101B80008B02C01A5241430A8B4201D34B02C01A46
:101B90005241030A8B4201D30B02C01A5241CDD2EB
:101BA000C3098B4201D3CB01C01A524183098B4236
:101BB00001D38B01C01A524143098B4201D34B011F
:101BC000C01A524103098B4201D30B01C01A524182
:101BD000C3088B4201D3CB00C01A524183088B4209
:101BE00001D38B00C01A524143088B4201D34B00F2
:101BF000C01A5241411A00D2014652411046704764
:101C00005DE0CA0F00D04942031000D34042534068
:101C100000229C4603098B422DD3030A8B4212D328
:101C2000FC22890112BA030A8B420CD3890192115A
:101C30008B4208D3890192118B4204D389013AD097
:101C4000921100E08909C3098B4201D3CB01C01A6C
:101C5000524183098B4201D38B01C01A524143097F
:101C60008B4201D34B01C01A524103098B4201D36D
:101C70000B01C01A5241C3088B4201D3CB00C01ADA
:101C8000524183088B4201D38B00C01A5241D9D2F2
:101C900043088B4201D34B00C01A5241411A00D273
:101CA0000146634652415B10104601D34042002B6F
:101CB00000D54942704763465B1000D3404201B5EE
:101CC000002000F005F802BD0029F8D016E77047A3
:101CD0007047C046F0B5CE46474615042D0C2E0081
:101CE00080B50704140C3F0C9946030C7E435D43FA
:101CF000674363437F19340CE4199C46A54203D91A
:101D000080235B029846C4444B4651434343360408
:101D1000360C250C24046544A419591849192000CF
:101D20000CBC90469946F0BD70B500220C4B0400E7
:101D30000D0000F00BFF002804D12000290000F066
:101D40005BFE70BD064B00222000290000F03EFB28
:101D500000F052FE80231B069C466044F1E7C0461B
:101D60000000E041F0B557464546DE464E46E0B538
:101D70004C000E0387B0834692461D008046360B0A
:101D8000640DCF0F002C4FD06F4B9C4235D0802379
:101D9000420F1B04F600134333439946C300984691
:101DA0006A4B00269C460023644403932B031B0BC1
:101DB0009B466B00ED0F50465B0D01955ED0624A6D
:101DC000934253D05A46D1008022400F120402435E
:101DD0000A4393465246D1005C4A9446002263442B
:101DE0003800684084460290E41A16430F2E00D94A
:101DF000B4E0574BB6009B599F46030033439946C6
:101E00006CD100239846023308260393CEE7CB46D5
:101E10004146039A0197022A65D1019B4A4C9C4690
:101E20000023002298466BE00300334399464ED0CE
:101E3000002E00D1BCE1300000F092FE03000B3B0D
:101E40001C2B00DDACE11D22D31A5A460100DA40FA
:101E500008398E401300334399465B468B409846C1
:101E600000233C4C0026241A03939FE751465A4610
:101E7000114329D1002293460232B1E7594601436A
:101E80001ED05B46002B00D19EE1584600F068FE54
:101E900003000B3B1C2B00DD8FE102005946083A82
:101EA00091408B461D21CB1A5146D9400B00594613
:101EB0000B4351469B469140264B00221B1A8FE74D
:101EC000002301229B468BE75146032288E700232B
:101ED0009846013304260024039367E70323B146A1
:101EE00003930C2662E7032A00D15CE2019B012ADE
:101EF00000D0E4E113409C460023002400229846D1
:101F000000211203130B0A0D12051A432305124C6C
:101F100040462240134362465B00D2075B081343EE
:101F2000190007B03CBC90469946A246AB46F0BDAE
:101F3000002380229C4612039846034CE0E70023CE
:101F4000014C00229846DBE7FF07000001FCFFFF81
:101F5000E83700000DFCFFFFFFFF0F80D94500D9D7
:101F600039E100D134E1002346464D469A46013C12
:101F70005B460A0E1B021A430B02170C0393130451
:101F80001B0C3900280090460193FFF72DFD02003D
:101F9000019B83465A43280039009146FFF7AAFD6A
:101FA000350C09040D43A9450DD95B464544013B59
:101FB000A84500D93AE1A94500D837E102235B42A0
:101FC0009C464544E3444B46EB1A39001800049301
:101FD000FFF70AFD019B0500434339000498994629
:101FE000FFF788FD330409041B0C0B43994509D9FD
:101FF00043446A1E984500D91AE1994500D817E173
:10200000023D43444A469B1A5A4612042A43039906
:102010009346100C0A0C914609045A46090C4E4688
:102020000D001204120C4543059151437243704355
:1020300052190E0CB218954203D980256D02AC4698
:102040006044150C09041204090C28185218834224
:1020500000D2CEE000D1C8E01D1A53469E1AB24508
:1020600092415242AB1A9A46984500D117E1390085
:102070001800FFF7B9FC019B0500434339005046A7
:102080000493FFF737FD04980B04310C1943884281
:1020900009D941446B1E884500D907E1884200D820
:1020A00004E1023D4144049BCB1A1800390004931B
:1020B000FFF79AFC019B8246434339000498019341
:1020C000FFF718FD01980B043104090C19438842ED
:1020D0000DD953464144013B884500D9E8E0884288
:1020E00000D8E5E002235B429C464144E244019B68
:1020F0002D04CE1A51462943059D4F462A000B0454
:10210000080C1B0C5A4345437B4378435B19170C5F
:10211000FB189D4203D980256D02AC4660441D0C1E
:1021200012041B04120C28189B18864200D293E05C
:1021300000D18EE001231943A04BE318002B00DCF3
:1021400099E04A0700D09EE05A46D20106D55A4689
:102150009B4B1A4080239346DB00E318994A934235
:1021600068DD0123029A984C1A4000239446984651
:102170000022C5E680224B46120313420AD05B467A
:10218000134206D11A431203120BAC4688468E4CFA
:10219000B6E64B461A431203120BBC468A4CAFE616
:1021A00003005A46283B9A4000239146984657E63A
:1021B000584600F0D5FC203040E603005246283B4C
:1021C0009A400021934677E600F0CAFC20305FE693
:1021D000884500D2C7E64B46DE075D0843465B08EC
:1021E0001E434346DB079A46C2E60025924500D3CC
:1021F00033E7039E5946B446E244B245AD416D42D1
:102200004544EB180139984507D2984200D97FE040
:1022100000D1BCE01D1A8B461FE79845FAD1039DFB
:102220005545F2D943468B461D1A16E79B46CAE62A
:102230001500E7E65A46C90852070A435B0590466F
:102240005C0D5A460123029952021940120B8C462A
:1022500056E6002B00D16FE746444A1EB04529D907
:102260001100864200D065E7039A934200D061E7EF
:1022700062E7012149420120C21A382A21DD029B6E
:1022800003409C4638E60F220A40042A00D15BE74F
:102290000A00111D914292415242934454E7474B28
:1022A000E318002BE5DD01225242F2E71D00FAE6B9
:1022B0009A461CE7B04239D86ED011003AE7029333
:1022C0003AE71F2A3CDC20239B1A0C005846994011
:1022D00098404B1E99415B46D440D340204308436D
:1022E0001A00430709D00F230340042B05D0010037
:1022F000081D88429B415B42D21813023AD5012344
:10230000029A01241A400023944698460022F7E5D9
:10231000022149428C46039DE344AC46E244AA456F
:10232000AD416D424544ED182D1A96E68A1E03997B
:102330004D008D42894149424144761803958FE70B
:102340001F204042C31A5846D8400300202A28D0F4
:1023500040205D46821A954029434A1E9141194307
:10236000072300220B4009D00F2300220B40080056
:10237000042BBDD1010053075202120BC9081943A7
:10238000012388460299002419408C46B8E552453D
:10239000BED88B46002560E6039D9D42C6D3110042
:1023A00062E70025D8E780225B4612031A43019BAF
:1023B0001203120B9C468846034CA1E5FF03000064
:1023C000FFFFFFFEFE070000FF070000F0B54646D6
:1023D000D6464F460C03C0B5CD0F4E00610A440FE0
:1023E0000C43C1005800400D84468A460F00190373
:1023F000500F490A0143C648760DA846DB0FD200AC
:10240000844500D1D8E001204340AB4200D1A6E092
:102410006046351A002D00DC05E1002810D10B00C4
:10242000134300D1D7E06B1E002B00D04BE1534685
:102430009F1ABA458041641A4042241A01261EE0C0
:10244000B34B9E4248D080231B041943382D00DD36
:1024500019E11F2D00DD4CE120230F005B1B100054
:102460009A409F40E840531E9A41E9400743174372
:102470005346DF1B611ABA45A44164420C1B230278
:1024800000D4C5E06402650A002D00D1F6E0280002
:1024900000F066FB0300083B1F2B00DDE9E0202273
:1024A0003C00D21A9D40D4409F4025439E4200DD0F
:1024B000DBE09E1B731C1F2B00DD0AE1202238008D
:1024C000D21A290097402C009140D8407A1E97419B
:1024D000DC40002601430F437B0709D00F233B401C
:1024E000042B05D03B1DBB42BF417F42E4191F00B6
:1024F000230225D5864B01369E4200D1AFE0854BA5
:1025000001251C4043466207FF0864027605174315
:10251000240B760D1D4000212403230B0C0D7E4A55
:1025200024051C431440330523435B00ED075B087F
:102530002B43380019001CBC90469946A246F0BDBA
:10254000012543466207FF081743E4081D40704B0E
:102550009E4236D024037605240B760DDBE76346D6
:10256000F31A002B00DC94E06046002835D0684860
:102570008642B1D080273F043943382B00DCFDE090
:102580000A43170000217A1E97415744574580415E
:10259000091944420C1923023AD55D4B01369E427B
:1025A00000D14BE101225B4B1C407B0817401F43CD
:1025B000E207174364088FE70800104300D024E7C0
:1025C00021E723003B4300D1B9E1802212031443E9
:1025D0002403240B9FE72E007EE70800104300D160
:1025E000CAE0581E8446002800D0E7E05244524515
:1025F000804164184042241817000126230207D5A1
:102600000226CFE764462C4300D1B3E12C00674695
:102610007B0700D062E76307FF081F43012543469D
:10262000E4081D4093E7002D78D1751C6D056D0DF4
:10263000012D00DCF2E05046801A8245BF41651A48
:102640007F42ED1B8446280200D48CE05046171AC6
:10265000BA4292410C1B5542651B984614E701256E
:10266000434600241D40002755E72A4CF61A2C400B
:1026700032E73D0028388540002717E7380000F092
:102680006FFA203006E70A43170000217A1E9741AF
:10269000EEE6002B00D0E5E0731C9C465B055B0D6D
:1026A000012B00DC9FE01A4B9C4500D1C5E0524451
:1026B00052458041641840422418E70752081743E6
:1026C0006408664608E71248854200D185E01D008F
:1026D000BCE629001F3EF140202B00D17FE04022C4
:1026E000D31A9D402F437D1EAF4100240F43002687
:1026F0008EE72B000F00203BDF40202D71D04023C0
:102700005D1BA9400A43511E8A4100211743AFE6D1
:10271000FF070000FFFF7FFFFFFF0F80002E3ED06E
:10272000B34EB44545D0802636046D423443382D2F
:1027300000DDA8E01F2D00DD1FE120262700504608
:10274000761BB740E84007435046B040461EB041B4
:10275000EC403843171ABA4292410C1B5242A41A59
:10276000664698468BE6644667462C4300D08BE667
:10277000002500260027EAE61E00ADE61F2B60DCE0
:102780002027F81A0F00844687401000D8400743DE
:1027900060468240501E8241D9401743F5E626002C
:1027A0005046064305D0ED43002DD3D0904EB4459E
:1027B000BDD10C001700664698468DE68C488342D2
:1027C0000BD06346D9E6002D00D096E008001043F8
:1027D00000D1E2E00C0017009846854E7CE600250B
:1027E00080E700218EE7230050460343002E00D0EF
:1027F000A8E0002B00D1DEE00B00134300D16BE614
:102800005244524580416418404224181700230264
:1028100000D4FDE6774B66461C405DE62500504639
:102820000543002ECFD1002D4FD10C00144300D111
:10283000A0E00C00170098464EE6664600240027EC
:1028400085E61F000800203FF8400700202B00D13C
:102850008EE04020C31A99400A43511E8A4100214C
:10286000174392E6002E14D126005046064362D04C
:10287000DB43002B5CD18718974292416418524287
:10288000A418664687E650462043441EA041002413
:1028900060E7574EB4454ED0802636045B42344341
:1028A000382B00DD7FE01F2B00DD8BE0202627008A
:1028B0005046F61AB740D84007435046B040461E2F
:1028C000B0410743DC40BF18D6E70D00154300D1E7
:1028D00002E65046801A8245BF41651A7F42ED1BD1
:1028E0008446280200D48DE65046171ABA42924117
:1028F0000C1B5242A41A9846EEE50D00154300D178
:102900006BE750466707C00807438020E4080003D0
:10291000044207D0CD08054204D12C009846D708C0
:1029200049070F437B0FE4001C43FF00304ED3E503
:102930002F4EB445B4D10C0017006646CCE50027F5
:102940000024E8E5002B39D00B00134300D144E705
:10295000C008670707438020E40800030442E1D071
:10296000CB080342DED1D70849070F431C00D9E743
:10297000002171E700250027E9E52E002700203E11
:10298000F740202D2FD04026751BAC4050462043E9
:10299000441EA04100243843DCE6802400252403A3
:1029A000134E0027D3E5504620430700781E874189
:1029B0000024BF1860E70C0017008DE50C0017001D
:1029C0000B4E89E51E002700203EF740202B0CD03F
:1029D0004026F31A9C4050462043441EA041074322
:1029E0000024BF1848E70024D0E70024F3E7C046DE
:1029F000FF070000FFFF7FFF30B5134D0A034B00B8
:102A0000120B5B0DC90F0024AB4210DD0F4CA3422B
:102A10000FDC80240E4D64032243ED1A1F2D0BDDC5
:102A20000C48C31ADA405442002900D11400200097
:102A300030BD094BCC18FAE7084CE840A446634483
:102A40009A400243EFE7C046FE0300001D04000069
:102A50003304000013040000FFFFFF7FEDFBFFFFC6
:102A600070B5002830D0C317C4185C40C50F2000D3
:102A700000F076F8174B184A1B1AD21A1F2A18DDD5
:102A8000164AD21A9440002224035B05240B5B0DE6
:102A90000021100024030A0D240B12052243104CC0
:102AA0001B05224013435B00ED075B082B43190015
:102AB00070BD210091400A000B21081AC4405B053B
:102AC0002403240B5B0DE3E70025002300240022F0
:102AD000DEE7C0461E0400003304000013040000BB
:102AE000FFFF0F808446101C62468C46191C63460B
:102AF00000E0C0461FB500F0EFF8002801D4002127
:102B0000C8421FBD10B500F049F84042013010BD69
:102B100010B500F0E1F8002801DB002010BD012015
:102B200010BDC04610B500F0D7F8002801DD002028
:102B300010BD012010BDC04610B500F069F8002896
:102B400001DC002010BD012010BDC04610B500F012
:102B50005FF8002801DA002010BD012010BDC0463A
:102B60001C2101231B04984201D3000C10391B0ABD
:102B7000984201D3000A08391B09984201D3000981
:102B8000043902A2105C40187047C04604030202D8
:102B9000010101010000000000000000F0B54F46F7
:102BA0004646D6465C00C0B51F03DB0F9A46174B5E
:102BB0000E034D0084468046360B6D0DC90F9146BD
:102BC0003F0B640D01209D4208D09C4201D0A542DC
:102BD0000BD01CBC90469946A246F0BD63463343D9
:102BE000F7D1AC42F5D13A43F3D10120BE42F0D146
:102BF000C845EED1514507D0002DEAD163461E43AA
:102C00003000461EB041E4E70020E2E7FF07000085
:102C1000F0B54546DE4657464E46E0B51F033D0B30
:102C20002C4F0E034C00AB465D008446360B640D02
:102C3000C90F90466D0DDB0FBC422AD0254FBD4217
:102C40002DD0002C0FD130430700814678427841C7
:102C5000C0B2002D17D15F463A4314D14B46002035
:102C6000002B0AD006E0002D02D15846024301D0C5
:102C7000994218D04842012108433CBC90469946ED
:102C8000A246AB46F0BD0028F2D00120013B18431C
:102C9000F3E737000743D1D002204042EDE75F461B
:102CA0001743CED0F8E7AC42E4DC03DA481E01213A
:102CB0000843E2E75E45DDD806D000205E45DCD261
:102CC0000123481E1843D8E7C445D3D80020C44583
:102CD000F6D3D2E7FF070000F0B54E464546DE4684
:102CE00057465C00E0B51F03DB0F99462A4B0E03E5
:102CF0004D00C90F8446360B6D0D8B4690463F0B39
:102D0000640D9D4220D0244B9C4222D0002D12D134
:102D1000304343424341DBB2002C1FD0002B0CD088
:102D20004B460120013B034318003CBC90469946AA
:102D3000A246AB46F0BD002C16D0CB4517D05B4663
:102D4000594201230B43EFE7310002230143EBD14A
:102D5000D9E7390002231143E6D1D7E73A43DDD161
:102D600000230028E0D0EAE73A43E6D1E7E7A542AE
:102D7000E5DC05DBBE42E2D807D00023BE42D3D259
:102D80005946012301390B43CEE7C445D7D8002368
:102D9000C445F5D3C8E7C046FF07000070B500265C
:102DA0000C4D0D4C641BA410A64209D1002600F066
:102DB00085FD0A4D0A4C641BA410A64205D170BDC6
:102DC000B300EB5898470136EEE7B300EB5898474D
:102DD0000136F2E7C8380000C8380000C8380000E3
:102DE000CC380000002310B59A4200D110BDCC5C55
:102DF000C4540133F8E700000EB410B59DB002A929
:102E0000029008610B48822488604861012040429A
:102E10001FABC881084804CBA400006801938C81D3
:102E200000F016F90023029A13701DB010BC08BC04
:102E300003B01847FFFFFF7F0400002070B50500B6
:102E4000002910D00C1F2368002B00DAE41828009A
:102E500000F0B9FB1D4A1368002B05D163601460B4
:102E6000280000F0B1FB70BDA34209D921686018A9
:102E70008342F3D118685B6841182160EEE71300C4
:102E80005A68002A01D0A242F9D919685818A042FC
:102E90000BD120680918581819608242E0D11068D7
:102EA0005268411819605A60DAE7A04202D90C232F
:102EB0002B60D5E721686018824203D11068526800
:102EC0004118216062605C60CAE7C046C80000200B
:102ED000032370B5CD1C9D43083506000C2D1ED272
:102EE0000C25A9421DD8300000F06DFB254A14685E
:102EF0002100002919D1244C2368002B03D1300074
:102F000000F032FB20602900300000F02DFB431C54
:102F10002CD10C233000336000F056FB03E0002D71
:102F2000DFDA0C233360002070BD0B685B1B1AD402
:102F30000B2B03D90B60CC18256003E08C420ED11B
:102F400063681360300000F03FFB200007220B3065
:102F5000231D9043C31AE7D05A42E250E4E74B687E
:102F600063600C00EEE70C004968C2E70323C41C51
:102F70009C43A042E0D0211A300000F0F5FA431C37
:102F8000DAD1C6E7C8000020CC000020F0B58E687A
:102F900085B007000C00039201939E4239D890231C
:102FA0008A89DB001A4234D00325096923685B1A39
:102FB0000293636902985D43EB0F5D19019B6D10ED
:102FC00001331B18AB4200D91D00530532D529002F
:102FD0003800FFF77DFF061E09D10C233B6040231C
:102FE0000120A28940421343A38105B0F0BD029A9B
:102FF0002169FFF7F7FEA389144A1A40802313437F
:10300000A381029B2661F61826606561019EED1A78
:10301000A560019BB34200D21E00320003992068D4
:1030200000F0BFFAA36800209B1BA36023689E19D1
:103030002660DAE72A00380000F0C7FA061EE0D161
:1030400021693800FFF7FAFEC7E7C0467FFBFFFFA4
:10305000F0B59FB0029005938B890F0016001B06F8
:1030600011D50B69002B0ED14021FFF731FF3860DD
:103070003861002805D10C23029A013813601FB073
:10308000F0BD40237B61002306AD6B6120336B767E
:103090001033AB7634002378002B47D1A31B049365
:1030A0000DD0A31B320039000298FFF76FFF431CBD
:1030B00000D1B5E06A69049B944663446B61237850
:1030C000002B00D1ACE00122002352426A6002A929
:1030D0005432521801342B60EB60AB601370AB6557
:1030E000584E05222178300000F050FA621C00286A
:1030F00020D12968CB0604D5532302AE20309B197A
:1031000018700B0704D553232B2002AE9B1918709F
:1031100023782A2B16D000200A21099B2278303AE6
:10312000092A55D9002815D0099313E0252BB5D0CD
:103130000134B0E70123801B8340296814000B434E
:103140002B60CDE7059B181D1B680590002B39DB14
:103150000993140023782E2B0BD16378621C2A2B41
:103160003ED1059B02341A1D1B680592002B34DBEF
:103170000793354E21780322300000F007FA00282B
:1031800006D04023801B83402A68013413432B6000
:10319000217806222D48661C297600F0F7F90028D0
:1031A00046D02B4B002B2FD12968059B0722C90540
:1031B00028D59B189343083305936B69039A9B1892
:1031C0006B6167E75B42EB6002230B432B60C0E758
:1031D0004B4301349B180120A0E701235B42C7E762
:1031E000002314000A201A006B6021783039092965
:1031F00003D9002BBDD00792BBE7424301345218DC
:103200000123F2E70733D5E705AB00933A00114BF2
:103210002900029800E000BF0390039B0133CCD14A
:10322000BB890B985B0600D429E70120404226E7C2
:1032300005AB00933A00074B2900029800F07AF89A
:10324000EAE7C046883800008E3800009238000057
:10325000000000008D2F0000F7B5150001938A686B
:103260000B6900900C00934200DA130022002B60DF
:1032700043321278002A01D001332B6023689B0669
:1032800002D52B6802332B60062723681F4027D006
:10329000230043331B785A1E93412268920630D490
:1032A0002200019943320098089EB047431C25D064
:1032B000062320682A68E16803400025042B03D117
:1032C0008D1AEB43DB171D40A3682269934201DD91
:1032D0009B1AED180027BD4220D1002010E00137D5
:1032E000E3682A689B1A9F42D2DA2200012319322E
:1032F00001990098089EB047431CF0D1012040423C
:10330000FEBD3020E1184331087021005A1C4531C0
:103310000978A218433202331170C1E72200012359
:103320001A3201990098089EB047431CE6D0013735
:10333000D1E70000F0B58BB006920A004332079344
:10334000059004920A7E0C00109B6E2A00D18FE03B
:1033500017D8632A2CD008D8002A00D199E0582A1F
:1033600054D026004236327029E0642A01D0692AFE
:10337000F7D121681A68080623D5111D1960156850
:1033800025E0732A00D188E008D86F2A29D0702A56
:10339000E7D1202209680A43226003E0752A20D081
:1033A000782ADED122007821453211706C4A30E053
:1033B0000E001A684236111D19601368337001231C
:1033C00079E04906D9D5111D19600023D55E002D7D
:1033D00003DA2D23049A6D421370624B0A2703937C
:1033E0002FE020681968050603D5081D18600D68D0
:1033F00005E04006F9D50D68081D1860ADB2594BBF
:10340000082703936F2A18D00A2716E045310A705F
:10341000544A03921A682168101D1860156808063E
:1034200022D5CB0702D52023194321601027002D78
:1034300003D1202322689A432260230000224333D1
:103440001A706368A360002B5CDB0422216891433F
:103450002160002D58D1049E002B64D02600039BD0
:1034600042361B7833705EE04806DAD5ADB2D8E755
:1034700009681A68080605D5111D19601368626984
:103480001A6006E04906F7D5111D19601368A28A73
:103490001A800023049E236154E01A68111D1960EC
:1034A000166800216268300000F070F8002801D032
:1034B000801B6060636823610023049A137041E0FD
:1034C0002369320006990598079DA847431C43D0FD
:1034D000236800259B070FD4099BE06898423DDADA
:1034E00018003BE022000123193206990598079E37
:1034F000B047431C30D00135E368099A9B1A9D42BE
:10350000F0DBE9E7002DA9D0049E28003900FEF782
:10351000F1FA039B013E5B5C280033703900FEF733
:1035200063FA051EF1D1082F09D12368DB0706D500
:1035300063682269934202DC3023013E3370049BAE
:103540009B1B2361079B09AA00932100069B0598FA
:10355000FFF782FE431CB3D1012040420BB0F0BD07
:10356000AA38000099380000002370B5064C050009
:1035700008002360FEF7ACF8431C03D12368002B3E
:1035800000D02B6070BDC046B0010020C9B28218C7
:10359000904201D10020704703788B42FBD001306C
:1035A000F6E710B5884202D98B18984208D3002359
:1035B0009A4207D0CC5CC4540133F9E78B5C835446
:1035C000013AFBD210BD70477047F8B507000D00F7
:1035D0001600002905D11100FFF77AFC0400200035
:1035E000F8BD002A03D1FFF729FC3400F7E700F00B
:1035F00012F82C008642F2D931003800FFF768FC3F
:10360000041EECD029003200FFF7ECFB2900380043
:10361000FFF714FCE3E70B1F1B68181F002B01DAF0
:103620000B58C018704700001C0300004C05000038
:103630004C0500004C0500004C0500004C05000046
:103640004C0500004C0500004C0500004C05000036
:103650004C0500004C0500004C0500004C05000026
:103660004C0500004C050000040300004C05000060
:103670004C0500004C0500004C0500004C05000006
:103680004C0500004C0500004C0500004C050000F6
:103690004C0500004C0500004C0500004C050000E6
:1036A0004C0500004C050000140300004C05000010
:1036B0004C0500004C0500004C0500004C050000C6
:1036C0004C0500004C0500004C0500004C050000B6
:1036D0004C0500004C0500004C0500004C050000A6
:1036E0004C0500004C0500000C0300002403000002
:1036F000EC020000FC020000F4020000FFFF0000EA
:10370000FFFF0000FFFF0000FFFF000006000000B9
:10371000FFFF0000FFFF0000FFFF0000FFFF0000B1
:10372000FFFF0000FFFF0000FFFF0000FFFF0000A1
:10373000FFFF0000FFFF0000FFFF0000FFFF000091
:10374000FFFF0000FFFF0000FFFF0000FFFF000081
:10375000FFFF000000000042000400420008004299
:10376000000C00420010004200040043C60F00009D
:10377000C20F0000C20F00002C1000002C1000002F
:10378000DC0F0000CC0F0000E20F00001A10000058
:10379000381400002C1500003615000040150000FC
:1037A0004A1500007C1500008615000090150000E9
:1037B0009A150000A41500000020004200240042D9
:1037C00000080043020000000001000002000000A9
:1037D00000020000030000000400000025640D0A40
:1037E00000000000111215005C1F00003E1F0000C9
:1037F000F81E0000161E0000F81E0000301F00001A
:10380000F81E0000161E00003E1F00003E1F0000B4
:10381000301F0000161E00000E1E00000E1E0000CD
:103820000E1E0000742100000000000000000000D7
:103830000000000000000000000000000000000088
:103840000000000000000000000000000000000078
:103850000000000000000000000000000000000068
:103860000000000000000000000000000000000058
:103870000000000000000000000000000000000048
:103880000000000000000000232D302B2000686C99
:103890004C00656667454647003031323334353673
:1038A00037383941424344454600303132333435AC
:1038B000363738396162636465660000F8B5C04622
:1038C000F8BC08BC9E467047DD000000F8B5C04655
:0C38D000F8BC08BC9E467047B500000024
:1038DC000100000008000020000000004838000033
:1038EC0068380000283800000000000000000000CC
:1038FC0000000000000000000000000000000000BC
:10390C0000000000000000000000000000000000AB
:10391C00000000000000000000000000000000009B
:10392C00000000000000000000000000000000008B
:08393C00000000000000000083
:0400000300001639AA
:00000001FF
